:10000000582A00201D0F0000190F0000190F0000D2
:1000100000000000000000000000000000000000E0
:10002000000000000000000000000000190F0000A8
:100030000000000000000000190F0000190F000070
:10004000190F0000190F0000190F0000190F000010
:1000500065080000190F0000190F00008901000059
:10006000190F000005080000150800002508000011
:10007000350800004508000055080000190F000071
:10008000190F0000190F0000190F0000190F0000D0
:10009000190F0000190F0000190F0000190F0000C0
:1000A000190F0000190F0000190F0000190F0000B0
:1000B0000000000010B5064C2378002B07D1054B3B
:1000C000002B02D0044800E000BF0123237010BDC4
:1000D0004408002000000000541A0000084B10B52E
:1000E000002B03D00749084800E000BF0748036819
:1000F000002B00D110BD064B002BFBD09847F9E731
:100100000000000048080020541A0000541A0000A3
:1001100000000000402100B5154A83B09369052016
:100120000B439361002301A90B70124B9847124BAC
:10013000052098470121114A13780B431370537817
:100140005BB2002BFBDB0E4B00221900403104C3D5
:100150009942FCD1102202210A4B1A60074A1378F7
:100160000B43137053785BB2002BFBDB03B000BD75
:1001700000040040ED0D0000650D00000018004077
:10018000EC08002000E100E0F0B557464546DE46A9
:100190004E46E0B5CD4C83B027683D682B78DB092F
:1001A00000D06CE02E8CB6B2002E35D1AB8BAA22DB
:1001B0009BB29846AB2352005B00FB5ABE5A543A9E
:1001C0001E4043469246C24A1E40914632000423D6
:1001D00046460025BF4F904601E06B00DB5B334293
:1001E00002D0226812689383424613420AD04946DD
:1001F000062D00D1F2E22B0022682E339B009B5883
:10020000100098470135072DE7D103B03CBC90465C
:100210009946A246AB46F0BD01223C0094465F32AF
:100220009346503A00239246B946A8465934FF34C3
:10023000320061461A41DDB211421BD01F0008375F
:100240007A014244D11DD2790091217A2078D2B22C
:10025000114001405846104200D0C0E150461042C3
:1002600000D0DCE10320104200D0F1E10C2010426C
:1002700000D011E201330134082BD9D1C5E72B8C12
:10028000002B00D084E00423AE8BB6B233421FD0E3
:10029000AB83914B10221B6801259C46904601239D
:1002A00060462A009A4010420AD019003A68083184
:1002B000490194468A5C9206520F032A00D1F9E064
:1002C0000133082BEDD19D33FB5CDB0700D547E103
:1002D000082333420AD000217F4A20681160026857
:1002E00093839D33C35C9B0700D536E140233342A3
:1002F00007D02068026893836533C35CDB0600D5B2
:1003000028E12023334207D0206802689383853395
:10031000C35C1B0700D51AE11023334207D02068C5
:10032000026893839533C35C5B0700D50CE180239F
:1003300033420AD00021684A206811600268938322
:100340002533C35C9B0600D5FBE080235B001E4287
:100350000AD00021604A20681160026893835B3BE9
:10036000C35C5B0600D5E9E080239B001E4200D100
:100370004BE70021584A20681160026893835C3B78
:10038000FF3BC35C7F2B00D83FE7036A98473CE7FD
:10039000288C524B80B298470823984680444346A5
:1003A00003225B01ED18ED790600EDB22A4214D06C
:1003B00049498C460121894681406046006888434E
:1003C0000100604601603968C918CA714946BA1906
:1003D000AE321278114200D086E004232B4220D0A6
:1003E00023681F689C4643465B019946DB5D9B067C
:1003F0005B0F0093022B00D1D3E0394872014346D2
:100400005901CB5D82189B065B0F032B00D1D3E013
:1004100000239372634642461B6852019B180422D4
:10042000DA7108232B4212D00122B2402A4908680F
:100430009043086020684246016852018C4662443D
:10044000D3718319AE331B789B0700D59BE0102333
:100450002B4211D00122B2401F4908689043086026
:1004600020684246016852018C466244D371831968
:10047000AE331B785B0777D420222A4200D1C4E632
:100480000123B34014490868984308602068434634
:1004900001685B018C466344DA718319AE331B78C3
:1004A0001B0700D4B1E60F490E7036018619336B75
:1004B0009847AAE662468A5C9207920F012A00D00A
:1004C000FEE6424661440A71FAE6C0466008002032
:1004D000640800201C1A0000700800202110000091
:1004E0002C09002074080020C049C1480E703A68E9
:1004F0009B5C72019B079B0F8218012B00D1FEE0D1
:1005000053681B019B0C4B8098B2536882469B0436
:100510009B0C8B80536899464846B64B184053460F
:100520005060002B03D153689B049B0C4B80B31C81
:100530001B01FB185B68380098474EE7C369984772
:1005400012E78369984700E7C3689847EFE60369B5
:100550009847E1E643699847D3E683689847C5E63C
:100560007B6838009847B3E6A04AA14B710116702A
:100570005B185B6800211B019B0C53803301C3187F
:10058000DB6A984778E79A4B72019B18DA891F2338
:10059000964913404B703301C3180E709B6A9847FD
:1005A00055E74A46D25D92489207920F9246012A39
:1005B00000D1E8E0720122E7CB5D9B079B0F012B86
:1005C00000D025E700239372634604221B685B1862
:1005D000DA7163461B68591810234B7121E72A0012
:1005E000454690465A01AD1808224020FF32AC5CC7
:1005F0004F46204200D18FE0A8544046883AFF3A47
:1006000002437D48827160220A4200D1FDE51B0150
:10061000FB18E0331B68784938009847F5E54F46EA
:10062000009A1070FA186132FF321278104200D12D
:10063000EBE56F4A5901521852681B016E49FB18CD
:100640009204920CDC330A801B6848469847DCE52C
:100650002A00454690460822022458012D18FF32F0
:10066000AE5C4F46344261D0AC544546883A624C49
:10067000FF3A2A43A2715E4A101842699204920C12
:1006800062808A0700D1C0E50D331B01FB185B684F
:10069000594938009847B8E53A0028004F46454682
:1006A000914608220824804658012D18FF32AE5C7E
:1006B00034424ED0AC544E4A10180222847E22425C
:1006C00002D0847E94438476802240465242024384
:1006D0004948827138684A46844652016244D27958
:1006E000920700D591E50C220A4200D18DE51B014D
:1006F000FB18D8331B6840493800984785E5536894
:100700009B049B0C4B8053681B019B0C8B80536894
:100710009B0B9B0353600AE72020AC5C204200D176
:1007200071E7A8544046344A90716CE7AC5CE4072A
:10073000A7D56446AC5442462F4CA2712C4A1018DF
:1007400042689204920C228042681201920CA280AC
:1007500097E70424AE5C3442C5D0AC54244A023C32
:100760001018827A144202D0827AA24382724046E2
:10077000214A907138684A46844652016244D279CF
:10078000D207B0D541E5720181180B0008219B46C4
:10079000019359448978C90700D430E65246B240E3
:1007A00016480168914300229A72634601601B68F3
:1007B0004B441A000423D37163469A19AE3212785F
:1007C000009B134200D12CE61023084960464B7071
:1007D000330163440E709B6A984722E65246044BED
:1007E00007491B891B0913400B6004E574080020AE
:1007F0002C090020FF3F00F068080020700800204E
:100800006408002010B5024B00201B68984710BDFB
:100810007C08002010B5024B01205B68984710BD92
:100820007C08002010B5024B02209B68984710BD41
:100830007C08002010B5024B0320DB68984710BDF0
:100840007C08002010B5024B04201B69984710BD9E
:100850007C08002010B5024B05205B69984710BD4D
:100860007C080020F8B5002301260B4C0B4D0C4FE3
:10087000237032009A402969114205D02A619B00F9
:10088000DB59002B00D0984723780133DBB223706B
:100890000F2BEED9F8BDC0462C0A002000180040EE
:1008A000EC0800200B4B1A68002A05D1EFF31081E9
:1008B000002905D008490A701A6801321A60704789
:1008C00072B6BFF35F8F054A1170034A0131117090
:1008D000F2E7C0469408002098080020000000209D
:1008E000084B1A68013A1A601B68002B09D1064BA5
:1008F0001B78002B05D00122044B1A70BFF35F8FC9
:1009000062B670479408002098080020000000207C
:10091000F0B50125002783B001AC2100084E3E2030
:100920006570A7702570B0478022064BD2059A618A
:1009300021000F2027706570B04703B0F0BDC0469E
:100940004909000080440041802200B583B001AB1A
:100950001A700A785A704A789A708A781900DA7090
:10096000014B984703B000BDB90E000002210D48AD
:100970000D4A03680B43036091840E31D36819421A
:10098000FCD083681021D362436893620023938470
:10099000054AD3681942FCD003689BB200209384B7
:1009A0007047C0469C08002000080040F0B5DE46B5
:1009B00057464E464546E0B50100457800784E7BE7
:1009C000424242419146CA78887894460A790F7B20
:1009D0008C7B90461F4B8A681F499B469B8A4A61C5
:1009E0004A4692009146042293434A46012113430A
:1009F00042460A40D200904608229343424613439F
:100A000062460A4012019446102293436246134301
:100A10002022084040019343034340205A460F40A0
:100A2000BF0183433B4340300E4083437938F60196
:100A300005400A4833432D02034009482B43214017
:100A4000090303400B4393823CBC90469946A2465F
:100A5000AB46F0BD000800409C080020FFF8FFFFF7
:100A6000FFEFFFFF10B5037A42899B069205920DB6
:100A70001B0C1343174A5360C179837984880B4355
:100A8000418821430B434178C9010B43136003782C
:100A9000042B10D0202B0DD1037B018A9B060B4326
:100AA000C1890D48090401400B43936011680B4B49
:100AB0000B43136010BD017B048A8906C089214362
:100AC000054C000420400143916011680B43136002
:100AD000F0E7C0469C0800200000FF03240400004B
:100AE000F0B5C646C2221E2100B54A4BD2009A601C
:100AF000494A002453688CB08B431A390B43536026
:100B0000022307AD454E2B70E0B229000134B047F7
:100B1000252CF9D1802203A8120200238260012231
:100B200003708370C3700271037305328373437360
:100B30003B4B427098470221364A938A0B4393827B
:100B4000D3681942FCD08021938A0B439382002200
:100B500000236A80AA803F32AB71EB716A816B70AF
:100B60003B3A304B2A701B689B0E3F2B50D02B72A8
:100B70002D4B28002B8207232B733833EB812B4B13
:100B800098474022234C236A934340321343284A18
:100B9000134002222362236A13432362254B9847A2
:100BA00001236A46984601930023694653701372E5
:100BB000537201200533204F1370B84701201F4D99
:100BC000A84742466B46694600201A70B04700208D
:100BD0001B4B98471B4B9847D021E3680B40D02B09
:100BE000FBD10023184A6946137253729372D37271
:100BF000012201926A460020537013725372073328
:100C00001370B8470020A8470CB004BC9046F0BD54
:100C1000203BACE70008004000400041ED0D000023
:100C2000AD09000024608000B9050000650A0000DD
:100C3000FFFCFFFF4D0C0000710C0000250D0000B3
:100C4000650D00006D090000000400400821064AFF
:100C500093690B4393610123044A07391370137896
:100C60001942FCD17047C04600040040000C00400F
:100C700070B50B7806001B0203431D004B7804007F
:100C8000002B02D08023DB021D434B7A002B02D0C5
:100C900080231B031D43486801280FD9431E1842B7
:100CA0002FD1022833D00223002401345B00984264
:100CB000FBD8240280235B0334431D430B7A002BB3
:100CC00002D080239B031D43124A53785BB2002B52
:100CD000FBDB114B9847114B0E4A1E7053785BB2E9
:100CE000002BFBDB0B4994604A7852B2002AFBDBF5
:100CF00080224B68520213402B434B60084B9847AD
:100D000070BD802304029B0234431D43D6E70024B8
:100D1000D0E7C046000C0040A5080000080C0040C9
:100D2000E108000010B504000A4A53785BB2002BBA
:100D3000FBDB094B9847094B064A1C7053785BB2A2
:100D4000002BFBDB802351685B020B435360044B99
:100D5000984710BD000C0040A5080000040C00409E
:100D6000E108000010B50400064B9847064B074AFF
:100D70001C7080235188DB010B435380044B984740
:100D800010BDC046A5080000020C0040000C004049
:100D9000E108000010B504000E4B98470E4B0F4AB7
:100DA0001C7053880E491B05180F53880B40538045
:100DB00053880C490B4080215380C90153880B4252
:100DC000FCD151880302064801400B435380064B77
:100DD000984710BDA5080000020C0040000C004020
:100DE000FFF0FFFFFFBFFFFFE108000010B50C7828
:100DF000034B240204439847024BA4B25C8010BD0D
:100E0000950D0000000C0040D37870B5002B31D157
:100E10001378802B47D080241B0664022343547828
:100E200002252600AE4307D19478002C37D18024C8
:100E3000A402234341605478013C012C35D9A024FD
:100E40000D042D0CE4052C431C438462D0240D0CAE
:100E500024062C431C438462D478002C09D15B0304
:100E600003D59378012B23D041615378013B012BAB
:100E700013D970BDA0230C04240CDB05234341606F
:100E80008362D0230C0C1B0623438362D378002B90
:100E9000EFD15378013B012BEBD88160E9E7C02407
:100EA000E4022343C6E70023B9E7024C2340C6E728
:100EB0008161DAE7FFFFFBFF0A0010B5C1090023DB
:100EC000002904D1064943098C46DB0163441F24F1
:100ED0000121204081401800024B984710BDC046B8
:100EE00000440041090E00007047C04610B5054B94
:100EF0009847054B9847054B9847054B9847054B36
:100F0000984710BDE10A000011090000E90E000039
:100F100015010000E90E0000FEE7C04628482949F7
:100F2000F8B588420DD0284A91420AD2CB439B188B
:100F300000229B0801339B0084588C5004329A4253
:100F4000FAD1224A22498A4209D2D3435B180321AB
:100F50008B4300210433D31802C29A42FCD1FF21F3
:100F60001C4B1D4A8B4393609023032502240C27BE
:100F700008261A4AFD395B00D150194AD378AB4391
:100F80002343D370D378BB433343D3703022154B04
:100F9000987B9043202210439873997BB943314347
:100FA000997380219A7BAA4322439A730E4A53680D
:100FB0000B4353600D4B98470D4B9847FEE7C046D7
:100FC000541A0000000000204408002044080020BB
:100FD000580A00200000000000ED00E00070004111
:100FE00000500041004800410040004161100000F5
:100FF00011100000044A1368002B03D01818106069
:1010000018007047014BF9E7B4080020582A002067
:1010100010B5024B9847002010BDC046ED0E0000F1
:10102000414208401C2101231B04984201D3000CBB
:1010300010391B0A984201D3000A08391B0998424B
:1010400001D30009043902A2105C401A7047C0465F
:101050001B1C1D1D1E1E1E1E1F1F1F1F1F1F1F1FAF
:1010600070B50D4E0D4D0024AD1BAD1005D0A30085
:10107000F35801349847A542F9D100F0D9FC084E45
:10108000084D0024AD1BAD1005D0A300F35801346A
:101090009847A542F9D170BD3C1A00003C1A0000E7
:1010A0003C1A0000441A0000034B10B5002B02D07C
:1010B000024800F005F810BD00000000D11000004B
:1010C00010B5010000230022002000F02DFC10BD0F
:1010D00070B5094B094CE41AA41009D0084AA518A8
:1010E000AD00ED182B68013C9847043D002CF9D168
:1010F00000F0A8FC70BDC046501A0000541A000051
:10110000FFFFFF3FF8B50C00060000F0EBFB204F9F
:10111000BB685D6803239D431E4B2C1B9C466444A7
:10112000240B1D4B013C24039C4207DD00213000B1
:1011300000F0E8FBBB685B19984204D0300000F077
:10114000D9FB0020F8BD6142300000F0DBFB431CFE
:101150000DD00122BB682D1B15435D600F4B300085
:101160001A68141B1C6000F0C5FB0120EAE700218F
:10117000300000F0C7FBBA68831A0F2BDEDD084988
:101180000968401A0549086001210B435360D5E7FF
:1011900034040020EF0F0000FF0F0000B80800200B
:1011A0003C080020F8B504000D1E3CD000F09AFB6E
:1011B0002900083948680123050003269D434A1980
:1011C0009C46614F5368B343BE68B24256D06646F0
:1011D000536006420AD13E0008680836091A2D18E5
:1011E0008868B04265D0CE68C660B0600120D6186D
:1011F0007668064233D0554B284348604D519D4296
:1012000012D8ED08FF3BAA10FF3B93407A68ED002F
:1012100013437B60EF19BB68CF608B60B960D96006
:10122000200000F067FBF8BD680A042850D8A80920
:10123000020039303832C000381808388368032675
:1012400098424CD05A68B243954230D29B6898423B
:10125000F8D1C368CB6088609960C160E0E7ED18A1
:101260003B4E9368B34242D0D2682843DA60936021
:10127000364B48604D519D42D6D8C2E76246EB18C6
:10128000024206D10A68891A88689B18CA68C26037
:10129000906001221A434A602E4AB9601268934254
:1012A000BED32D4B20001968FFF72CFFB8E71800BC
:1012B000CFE76646D018406830423FD190685D194C
:1012C000D368C360986063462B434B604D51A7E7DA
:1012D000142814D802005C305B32C000ACE7012354
:1012E000921093407A6813437B600300B2E728436F
:1012F000D9609960CB608B6048604D5190E754286D
:1013000005D8280B02006F306E32C00094E7AA2285
:101310005200904205D8E80B020078307732C000C6
:101320008AE70E4A904205D8A80C02007D307C3234
:10133000C00081E7FE207E2280007DE763462B43CC
:101340004B6015606CE7C04634040020FF010000CC
:101350003C04002040080020E8080020540500005C
:101360007047C0467047C04610B5034B010018686F
:1013700000F004F810BDC04604000020F0B5574648
:101380004546DE464E46E0B50D000B3583B00700FE
:10139000162D00D89FE007239D4300D5C4E0A94245
:1013A00000D9C1E000F09EFAF823FF339D4200D837
:1013B0008FE2680A00D1BBE0042800D962E138233B
:1013C0009846A80980443930C100D24E71180839B6
:1013D000CC68A14219D0032362689A431300521BC0
:1013E0000F2A00DDAAE0002A00DB88E003239C46E8
:1013F00008E06246636893435A1B0F2A00DD9DE0B4
:10140000002A7CDAE468A142F3D132003469083260
:10141000944200D190E10323616899438946491BB6
:101420000F2900DD62E172613261002900DB87E093
:10143000B94A4B46914500D930E1DB08FF3A991093
:10144000FF3A8A40DB0071689B190A439968726011
:10145000E360A1609C601300CC6001218210914088
:1014600099426FD80B4205D10322904349000430C2
:101470000B42FBD003239846C3009946B144CC46A7
:1014800082466346DC68A44507D157E1002A00DBA9
:1014900066E1E468A44500D150E1424663689343A5
:1014A0005A1B0F2AF2DD0120804661190543656051
:1014B000A068E5680836C560A8604046F160B16084
:1014C00010434860CE608E603800E25000F012FA9F
:1014D0002000083021E0102926D8380000F002FA58
:1014E0001025182302208B4EF3181A005C68083A66
:1014F000944200D12EE1032362689A431300E2680C
:10150000A168CA6091600122E318596838000A4353
:101510005A6000F0EFF92000083003B03CBC904660
:101520009946A246AB46F0BD0C2300203B60F4E791
:1015300080213F2340208900984646E7404664E7E3
:101540004B46E0E70323B46862689A439046AA4298
:1015500003D3531B0F2B00DD86E0230043446F4A67
:1015600001936F4B93461B681268EB18013200D150
:1015700068E16C4A944663441B0B1B03009300997B
:10158000380000F0BFF903008146013361D0019BB0
:10159000834200D9FFE0644B009A9A461B689C4640
:1015A000534662441A60019B1100834200D155E109
:1015B0005B461B68013300D16CE14B46019A9B1AD4
:1015C00059185346196007234A46134000D124E1B5
:1015D000082189465549D21A9144CB1A009A3800FD
:1015E0004A441105090D5B1A19009B4600F08AF95F
:1015F000431C00D142E14B46C01A01235844184312
:1016000053461B685B441900534619604B46B36050
:101610005860B44213D043460F2B00D8E8E043464D
:10162000072260680C3B9343063A024005201A43A8
:101630006260E218506090600F2B00D922E13C4BB1
:101640001A68914200D919603A4B1A68914200D940
:1016500019600323B46862689A43531B954200D90A
:10166000C9E00F2B00DCC6E001222900134311431F
:10167000651961603800B5606B6000F03BF92000CF
:1016800008304AE714287AD9542800D9BAE06E23E2
:101690009846280B80446F30C10096E65A0A042A07
:1016A00073D9142A00D9D0E011005C325B31D2002A
:1016B00008235B429C46B218944463469A6803230D
:1016C0009846944500D1ABE043465168994389451B
:1016D00000D395E092689445F6D16346DA68736862
:1016E0006146E260A1609460CC60B6E601236019B7
:1016F0001D43656070613061C26082601A004B46B4
:101700000A4342603800E15000F0F4F8200008304D
:1017100003E7C04634040020FF0100003C0800201D
:10172000E80800200F100000B80800200810000092
:10173000E0080020E408002073688EE608239B463A
:10174000073BDC449B46DA4443465246134200D0F2
:1017500097E637E0DC680230A34200D155E6CAE6DE
:101760000122E318596838000A435A60E368A26806
:10177000D3609A6000F0BEF820000830CDE65B230D
:10178000984680445C30C1001FE69A091100393246
:101790003831D2008CE7B44200D05AE74F4B009A60
:1017A0009A461B689C465346624411001A60FFE645
:1017B00008235B429C46E1444B469B6801389945AF
:1017C00000D084E043460342F2D173688B437360D8
:1017D0004900994200D9B5E6002900D1B2E6504649
:1017E0000B4200D048E6490004300B42FBD043E6F0
:1017F00001234A465360380000F07CF800208CE654
:1018000094466AE7AA235B00984211D8DD3B9846CC
:10181000E80B80447830C100D7E580235B01DDE62A
:101820008910023B8B40726813437360624657E72E
:101830002B4B98421CD87C239846A80C80447D30C2
:10184000C100C2E51033009399E6542A26D84B46CE
:101850001A0B11006F326E31D20029E71B0500D040
:10186000A6E60120009BB268434403435360E6E6CA
:10187000FE217E237F2089009846A6E500230120D3
:101880009B46BDE6210038000831FFF78BFC53462C
:101890001968D4E65B464A461A6094E6AA214900D4
:1018A0008A4206D84B46DA0B110078327731D200E3
:1018B000FEE60B498A4206D84B469A0C11007D324F
:1018C0007C31D200F4E6FE227E219200F0E67368BD
:1018D0007EE72B00E808083305E6C046B80800207C
:1018E0005405000010B50248FFF73AFD10BDC04690
:1018F000400A002010B50248FFF734FD10BDC04675
:10190000400A0020002370B5064C05000800236043
:10191000FFF770FB431C00D070BD2368002BFBD089
:101920002B60F9E7540A0020F0B54E464546DE46E6
:101930005746E0B5364D83B00600286898460F003C
:101940009146FFF70DFD334B1C68A4235B00E05864
:10195000002852D043681F2B13DC5A1C0192002E22
:1019600028D1019A02339B0042601F502868FFF77C
:10197000F9FC002003B03CBC90469946A246AB4619
:10198000F0BD254B002B3DD0C8204000FFF7ECFCFC
:10199000002837D0A42200235200A15843600160E0
:1019A000A05040328350043283500133019300230E
:1019B000002ED6D09A00924682444A468821544648
:1019C0006250C4225200914681444A468739994068
:1019D00012688B460A4394464A4661461160842247
:1019E00041465200A150022EBBD102005C468D320E
:1019F000FF3211680C431460B3E720004D30FF3014
:101A0000E050A7E72868FFF7ADFC01204042B1E7AE
:101A1000300400202C1A00006913000004000800A4
:101A2000700080000100000100020000080000209A
:101A3000F8B5C046F8BC08BC9E467047A910000027
:101A4000DD000000F8B5C046F8BC08BC9E467047F3
:041A5000B5000000DD
:101A5400010000000800002000000000F402002043
:101A64005C030020C403002000000000000000000C
:101A74000000000000000000000000000000000062
:101A84000000000000000000000000000000000052
:101A94000000000000000000000000000000000042
:101AA4000000000000000000000000000000000032
:101AB4000000000000000000000000000000000022
:101AC4000000000000000000000000000000000012
:101AD4000000000000000000000000000000000002
:101AE40000000000000000000000000000000000F2
:101AF40000000000000000000000000000000000E2
:101B040001000000000000000E33CDAB34126DE67E
:101B1400ECDE05000B0000000000000000000000E7
:101B240000000000000000000000000000000000B1
:101B340000000000000000000000000000000000A1
:101B44000000000000000000000000000000000091
:101B54000000000000000000000000000000000081
:101E8400300A00200000000000000000340400209C
:101E9400340400203C0400203C04002044040020BE
:101EA400440400204C0400204C040020540400206E
:101EB400540400205C0400205C040020640400201E
:101EC400640400206C0400206C04002074040020CE
:101ED400740400207C0400207C040020840400207E
:101EE400840400208C0400208C040020940400202E
:101EF400940400209C0400209C040020A4040020DE
:101F0400A4040020AC040020AC040020B40400208D
:101F1400B4040020BC040020BC040020C40400203D
:101F2400C4040020CC040020CC040020D4040020ED
:101F3400D4040020DC040020DC040020E40400209D
:101F4400E4040020EC040020EC040020F40400204D
:101F5400F4040020FC040020FC04002004050020FC
:101F6400040500200C0500200C05002014050020A9
:101F7400140500201C0500201C0500202405002059
:101F8400240500202C0500202C0500203405002009
:101F9400340500203C0500203C05002044050020B9
:101FA400440500204C0500204C0500205405002069
:101FB400540500205C0500205C0500206405002019
:101FC400640500206C0500206C05002074050020C9
:101FD400740500207C0500207C0500208405002079
:101FE400840500208C0500208C0500209405002029
:101FF400940500209C0500209C050020A4050020D9
:10200400A4050020AC050020AC050020B405002088
:10201400B4050020BC050020BC050020C405002038
:10202400C4050020CC050020CC050020D4050020E8
:10203400D4050020DC050020DC050020E405002098
:10204400E4050020EC050020EC050020F405002048
:10205400F4050020FC050020FC05002004060020F7
:10206400040600200C0600200C06002014060020A4
:10207400140600201C0600201C0600202406002054
:10208400240600202C0600202C0600203406002004
:10209400340600203C0600203C06002044060020B4
:1020A400440600204C0600204C0600205406002064
:1020B400540600205C0600205C0600206406002014
:1020C400640600206C0600206C06002074060020C4
:1020D400740600207C0600207C0600208406002074
:1020E400840600208C0600208C0600209406002024
:1020F400940600209C0600209C060020A4060020D4
:10210400A4060020AC060020AC060020B406002083
:10211400B4060020BC060020BC060020C406002033
:10212400C4060020CC060020CC060020D4060020E3
:10213400D4060020DC060020DC060020E406002093
:10214400E4060020EC060020EC060020F406002043
:10215400F4060020FC060020FC06002004070020F2
:10216400040700200C0700200C070020140700209F
:10217400140700201C0700201C070020240700204F
:10218400240700202C0700202C07002034070020FF
:10219400340700203C0700203C07002044070020AF
:1021A400440700204C0700204C070020540700205F
:1021B400540700205C0700205C070020640700200F
:1021C400640700206C0700206C07002074070020BF
:1021D400740700207C0700207C070020840700206F
:1021E400840700208C0700208C070020940700201F
:1021F400940700209C0700209C070020A4070020CF
:10220400A4070020AC070020AC070020B40700207E
:10221400B4070020BC070020BC070020C40700202E
:10222400C4070020CC070020CC070020D4070020DE
:10223400D4070020DC070020DC070020E40700208E
:10224400E4070020EC070020EC070020F40700203E
:10225400F4070020FC070020FC07002004080020ED
:10226400040800200C0800200C080020140800209A
:10227400140800201C0800201C080020240800204A
:10228400240800202C0800202C080020FFFFFFFF5A
:042294000000020044
:0400000300000F1DCD
:00000001FF
