:10000000682100204D14000049140000491400002C
:1000100000000000000000000000000000000000E0
:100020000000000000000000000000004914000073
:100030000000000000000000491400004914000006
:10004000491400004914000049140000491400003C
:10005000491400004914000049140000491400002C
:100060004914000051050000610500007105000001
:100070008105000091050000A1050000090C0000A9
:10008000190C0000290C000049140000491400005C
:1000900049140000491400004914000049140000EC
:1000A00049140000491400004914000049140000DC
:1000B0000000000010B5064C2378002B07D1054B3B
:1000C000002B02D0044800E000BF0123237010BDC4
:1000D000680000200000000088200000084B10B5D8
:1000E000002B03D00749084800E000BF0748036819
:1000F000002B00D110BD064B002BFBD09847F9E731
:10010000000000006C000020882000008820000013
:10011000000000007047C04610B549084023002485
:10012000814202D2180010BD1C00631C091A9BB248
:100130008842F9D94023FF2CF4D814800023F1E73A
:10014000F0B55746DE464E46454604008A46E0B5C1
:1001500087B0039210AA117840224C43544507D926
:10016000100007B03CBC90469946A246AB46F0BD95
:10017000002B3ED10200614C08000021A047002363
:1001800083460120564699469A46002700220023BE
:100190003F21844623E06446844020006446921850
:1001A0005B418C40A0461C00130000930194230087
:1001B0005C46044203D0644614432200019B9F42E4
:1001C0000BD801D1964208D84C4645462C4355469B
:1001D0000543921BBB41A146AA46013910D32020FA
:1001E00040420818D7D520206446401AC440200059
:1001F000D4E70022012B07D0039B1A800022AFE72F
:100200004B465A42120CF7E70A0000233B4C0021F0
:10021000A04700230D00012198460400002200237E
:100220003F268C46674692185B41B7405146009284
:1002300001930F4203D0604610430200019B9D4290
:1002400007D801D1944204D841463943121BAB412F
:100250008846013EE6D2802340229B01984500D982
:100260007EE753465B0F9B465346DB001900012097
:1002700000238A4641460493002200233F278146FB
:1002800000940195059123E0484688408046494600
:10029000B9408C46564664465D46264044462C404E
:1002A00092185B41264302D04C461443220000982A
:1002B000019999420AD801D1904207D80098019932
:1002C000121A8B416046049901430491013F09D3FE
:1002D000202149427918D7D520214846C91BC8405A
:1002E0008046D4E7059B9846DA00049B9A1A434659
:1002F000D2B252031A4392B27EE7C046BD16000046
:1003000030B50E4C83B023780500002B06D00029B1
:1003100004D1637883420FD01D200BE001A9132084
:10032000074B0D7098471320064B98470123002078
:100330006570237003B030BD0020FBE7840000200F
:10034000E9120000611200003A4B984243D00AD9EA
:10035000394B984217D0394B984232D0384B98429B
:100360001BD000207047374B984220D0364B984224
:10037000F7D1012943D000293FD002293BD00329DE
:10038000EFD13248EEE7012931D000292DD00229E2
:100390002FD00329E5D12E48E4E701293FD00029D9
:1003A0003BD0022937D00329DBD12A48DAE70129DB
:1003B0003DD0002939D002292BD00329D1D126489C
:1003C000D0E7012923D000291FD002291BD00329FF
:1003D000C7D12248C6E7012925D0002921D002290A
:1003E0000FD00329BDD11E48BCE71E48BAE71E48FE
:1003F000B8E71E48B6E71E48B4E70320B2E71D4839
:10040000B0E71D48AEE71D48ACE71D48AAE71D4808
:10041000A8E71D48A6E71D48A4E71D48A2E71D4818
:10042000A0E71D489EE71D489CE71D489AE71D4828
:1004300098E7C0460010004200180042001C00422D
:100440000014004200080042000C004203001F009C
:1004500003000F000300130003000700030019004E
:1004600003000B0003000C0003000D0003000E004E
:1004700003001E000300010003000A00030018002F
:10048000030016000300170003000600030012001B
:10049000030010000300110003000800030009001E
:1004A000030004000300050070B586B06946094BDF
:1004B0006A4670CB70C170CB70C10023990051584F
:1004C000814205D00133062BF8D1002006B070BD63
:1004D000D8B2FBE7BC1F00007047C046F0B58C46A1
:1004E0000B490B78002B10D100230025094C0A4F33
:1004F0000A4EF218E75004331560182BF9D1173B58
:100500000B70634680002350F0BD024CF9E7C046F3
:100510008600002088000020D9040000D8000020B8
:1005200000B583B06A460923137001335370013359
:1005300093700133D3700133137101335371034B43
:1005400098476B46185603B000BDC046A90400008A
:1005500010B5024B00201B68984710BD8800002092
:1005600010B5024B01205B68984710BD8800002041
:1005700010B5024B02209B68984710BD88000020F0
:1005800010B5024B0320DB68984710BD880000209F
:1005900010B5024B04201B69984710BD880000204D
:1005A00010B5024B05205B69984710BD88000020FC
:1005B000F0B54E464546DE465746E0B50500BD4B14
:1005C0000C0091B029600800904699469847012395
:1005D000226806000520134206D011B03CBC9046AC
:1005E0009946A246AB46F0BD022722681730174055
:1005F000F3D1B01C8340B04A1436116AF6B20B43F3
:1006000013622D239A46434652469B5C0AA90B70FF
:100610003000AA4B98473000A94B984752464346B2
:100620000021985CA74B98474346DB7A42466B71A2
:100630002423D35C0CAEAB712523D35CEB71D37E4A
:100640002B72137F6B722B6818009A46C84743467B
:1006500037801A8A802314300292DB019A4200D13B
:10066000B9E000D8F1E0C023029ADB019A4200D140
:10067000F9E080231B029A4200D0EFE003230993A4
:100680000023089343461B68424603934346DB68B6
:10069000049343465B69059343461B7E06932623DA
:1006A000D35C079353689B46002B00D1B9E08023AD
:1006B0005B059B4500D0B2E02723D35C0021002BD3
:1006C00000D1ECE043465B7E002B03D0434652460C
:1006D0009B7E93732A68029FD369002BFCD15346FB
:1006E000049A9981039B1343059A13435A46134373
:1006F0001F43069B42461B021F43079B5B071F438A
:100700002723D35C002B01D104331F4343464246C9
:100710005B7E127F9B02520213434246527F414648
:100720001202134324228A5C5204134325228A5C5A
:10073000897A120413434246D27A1143194343463D
:100740001B89FF2B00D193E08022520417431943E9
:100750002C234246D35C002B03D15B4B9B789B0739
:1007600001D580231F432A68D369002BFCD153464F
:1007700059602A68D369002BFCD1524608A917603A
:100780004B73CB738B734346186B5B6B8022736028
:1007900043469B6B0027B3604346DB6B0A73F360F1
:1007A0004A4B0C909B464A4BF9B29A4600280FD010
:1007B000431C05D008AB1873000CC0B20BA9D0477E
:1007C0000137042F0CD0BB00F058F9B20028EFD14C
:1007D0002000D847ECE7082309930023089351E74A
:1007E00000230022EB85EB602B616B61AB61EB6159
:1007F0002B62AB626B62AB853033EA540133EA544F
:100800000133EA540133EA542868C8470400314BE5
:1008100031499847314BA400E5500020DDE6002126
:1008200050E727234246D35C002B2AD0414640465E
:10083000099B32000093896A089B006A284FB847D9
:10084000002800D0C9E631883CE780239B019A420A
:1008500004D1102309930F3B089313E71023099346
:10086000002308930EE708230993073B089309E741
:100870004346DB7E002B00D16AE78023DB041F4365
:1008800066E7136AC0B21F00164B9847099B010028
:1008900000933200089B3800114FB847D0E7136A25
:1008A000C0B21F000F4B9847320001000E4B3800BA
:1008B0009847C5E7A904000000040040E9120000C1
:1008C0006112000001030000002000414903000004
:1008D000E9130000DD040000290A0000D800002010
:1008E000410100000513000019010000F0B5D646D3
:1008F0004F4646461723C0B5002A05D118001CBC38
:1009000090469946A246F0BDC4790533002CF5D037
:100910000468E369002BFCD1013A93B29A460223A2
:100920009C46224B002701259846237E1D4207D175
:100930001E4B02E0013B002B36D0227E1542F9D03F
:1009400046797B1C9BB2CA5D012E26D092B291469D
:100950001F00C379002B0CD0C38D002B09D1036875
:10096000DA69002AFCD14A461A8566461A7E164282
:10097000FBD05646013EB3B29A464345D5D1237EBD
:100980009B0708D45646022202E0013E002E0BD0FF
:10099000237E1A42F9D00023B0E7CB5C02371B025A
:1009A0001343BFB29946D4E71223A7E7FFFF000025
:1009B000F8B50400104B0E00170005689847A38D8A
:1009C000002B03D00D4B98470520F8BD0B4BA78596
:1009D0009847322305226662E2542E3BAB75237A98
:1009E000002B06D1637A0020002BEED00823AB75D4
:1009F000EBE72023AB75F5E7AD0D0000E90D000036
:100A0000931C9B00C31859600123934030211A00A6
:100A1000435C13434354704710B50122014B984780
:100A200010BDC046B1090000F8B5624B8000C55842
:100A30002C68E369002BFCD1237EA67D31221E4069
:100A40003023AF5CEB5C1F400123334219D0EA8DA9
:100A5000002A4DD0AA6A511C1378A9626979DBB2C9
:100A6000012900D175E09BB2DB05DB0D2385EB8D01
:100A7000013B9BB2EB85002B03D10133237501337E
:100A8000A3750223334205D0002223753133EA5483
:100A9000FB073BD40423334212D0AA8D002A25D071
:100AA000638BDBB21A0735D53722134035D00222CB
:100AB0001A4254D01A213223E95462837B0759D455
:100AC0001023334203D0237523763B4216D12023D3
:100AD000334203D0237523763B0713D408233342D4
:100AE00003D023752376BB0604D4F8BD2375E7E74E
:100AF0002375C6E72B6A28009847F6E72800EB69BC
:100B00009847E4E72800AB699847E7E72800EB68D7
:100B10009847BFE73F221340C9D1238D696ADB059F
:100B2000DB0DDAB20A706A6A511C696269790129BF
:100B300029D0AB8D013B9BB2AB85002BC0D10422E9
:100B400022752E32AB54BB07BAD528002B699847C3
:100B5000B6E75178023209020B43AA6284E7042205
:100B60001A420BD101221A4213D013213223E95425
:100B70006283A3E728006B699847A1E71E2132230F
:100B8000E95462839AE71B0A53706B6A01336B6204
:100B9000CFE710221A4204D042213223E954628363
:100BA0008CE720221A4200D188E741213223E95400
:100BB000628383E7D8000020F0B5C64600B5104B2D
:100BC0008000C75804243B687A6BDE6ABB6B012542
:100BD00013401E400B4B984605E0231D342B0CD0D0
:100BE000424615591C003542F7D03B59380098470A
:100BF0003B68DD62231D342BF2D104BC9046F0BD6E
:100C0000F0000020D41F000010B50020014B9847D1
:100C100010BDC046B90B000010B50120014B98472C
:100C200010BDC046B90B000010B50220014B98471B
:100C300010BDC046B90B000070B590B06946FF22E8
:100C400080230A8101252422DB05009300238D5493
:100C500001328D5401328B5401328B5405328B5446
:100C600001328B548B72CB720B8201930A930593E2
:100C700013238B76E1235B0208931A4B00220C931B
:100C8000194B1A4C0D9301235B420E930F93802353
:100C90005B03CA760A760A774A764A7703936A46EE
:100CA0001349144B200098472668134B300098478F
:100CB0001F2318408540114B1D602268D369002B0B
:100CC000FCD1022233680E4913433360013A2000FD
:100CD0000C4B984731220221A35C0B43A35410B064
:100CE00070BDC0460200160002001700FC00002084
:100CF00000140042B10500002105000000E100E001
:100D0000650D0000010A00000EB4022230B5C2B029
:100D100045AC20CCFF3200210D4B01A898472200A2
:100D200029000C4B009401A898470B4B01A8984749
:100D3000802382B25B009A4204D942B030BC08BC26
:100D400003B0184701A9054B05489847F5E7C04689
:100D50006B170000B91700007B170000ED080000BA
:100D6000FC00002070B5064D064C2A782000D2B257
:100D70000549064B984729002000054B984770BD50
:100D8000A0000020FC00002004200000090D00004D
:100D9000190A000010B502490248034B984710BDDC
:100DA000A0000020FC000020190A00000B4B1A686C
:100DB000002A05D1EFF31081002905D008490A70F7
:100DC0001A6801321A60704772B6BFF35F8F054A26
:100DD0001170034A01311170F2E7C046A4000020EF
:100DE000A800002000000020084B1A68013A1A6091
:100DF0001B68002B09D1064B1B78002B05D0012264
:100E0000044B1A70BFF35F8F62B67047A4000020D6
:100E1000A800002000000020012310B5002482B0AB
:100E200001A94B700B70FF20024B8C709847A46196
:100E3000FFDEC046390E0000802200B583B001AB52
:100E40001A700A785A704A789A708A781900DA709B
:100E5000014B984703B000BDE913000002210D4883
:100E60000D4A03680B43036091840E31D368194225
:100E7000FCD083681021D36243689362002393847B
:100E8000054AD3681942FCD003689BB200209384C2
:100E90007047C046AC0000200008004010B508288C
:100EA0002DD81C4B80001B589F468020000210BD8F
:100EB000194B5869FBE7194B19481B6A9B059B0F97
:100EC000D840F4E7144C002023689B07EFD510228C
:100ED0001249CB681A42FCD0242322681340042B09
:100EE0000FD01048E3E70C4B1869E0E750230B4A9A
:100EF0000020D35C5B07DAD5074BD868D7E7002022
:100F0000D5E7094B00209847A3681B041B0C5843E6
:100F1000CDE7C04608200000AC00002000080040DB
:100F200000127A00006CDC020513000010B5037A91
:100F300042899B069205920D1B0C1343174A53607E
:100F4000C179837984880B43418821430B434178DD
:100F5000C9010B4313600378042B10D0202B0DD153
:100F6000037B018A9B060B43C1890D48090401409C
:100F70000B43936011680B4B0B43136010BD017B57
:100F8000048A8906C0892143054C0004204001439E
:100F9000916011680B431360F0E7C046AC0000207D
:100FA0000000FF0324040000C2221E2170B5374B4D
:100FB000D2009A60364A0024536888B08B431A39AD
:100FC0000B435360012303AD324E2B70E0B2290076
:100FD0000134B047252CF9D100230022AB716A807F
:100FE000EB716B7020322C4B2A701B689B0E3F2BD1
:100FF0004AD02B7207232B730333EB81274B280036
:101000006B81FF3BAB80264B204C2B82254B9847B6
:101010004022236A934340321343234A134002225F
:101020002362236A13432362204B984701236A46B5
:101030000193002369465370062203201C4E0B7255
:101040004B720A70B04703201A4DA8471A4B9847B5
:101050001021E3681942FCD08021A38C174A0B436E
:10106000A38400236946137253729372D3720122D0
:101070004B704B720020073301920B700A72B0471D
:101080000020A84708B070BD203BB2E70008004030
:1010900000400041E912000024608000FF010000D0
:1010A00080BBFFFF2D0F0000FFFCFFFFC110000001
:1010B000E5100000991100005D0E000000040040E2
:1010C0000821064A93690B4393610123044A0739B7
:1010D000137013781942FCD17047C04600040040D9
:1010E000000C004070B50B7806001B0203431D0086
:1010F0004B780400002B02D08023DB021D434B7A87
:10110000002B02D080231B031D43486801280FD900
:10111000431E18422FD1022833D002230024013469
:101120005B009842FBD8240280235B0334431D43B9
:101130000B7A002B02D080239B031D43124A537865
:101140005BB2002BFBDB114B9847114B0E4A1E7014
:1011500053785BB2002BFBDB0B4994604A7852B2A8
:10116000002AFBDB80224B68520213402B434B606A
:10117000084B984770BD802304029B0234431D43F3
:10118000D6E70024D0E7C046000C0040AD0D0000BB
:10119000080C0040E90D000010B504000A4A53781D
:1011A0005BB2002BFBDB094B9847094B064A1C70CE
:1011B00053785BB2002BFBDB802351685B020B434F
:1011C0005360044B984710BD000C0040AD0D00006B
:1011D000040C0040E90D000070B50400194A537872
:1011E0005BB2002BFBDB184B9847184B154D1C705E
:1011F0006B785BB2002BFBDB6868154BC004C00E3C
:1012000098470600114B0F4A1C706D68114BED0298
:10121000ED0F1C7053785BB2002BFBDB91680E4B1B
:1012200009020C0C9847002D03D00134E640300031
:1012300070BD012CFBD930002100084B98470600F7
:10124000F5E7C046000C0040AD0D0000040C004066
:101250009D0E0000080C0040E90D0000A5150000DF
:1012600010B50400064B9847064B074A1C708023B4
:101270005188DB010B435380044B984710BDC04697
:10128000AD0D0000020C0040000C0040E90D000014
:1012900010B504000E4B98470E4B0F4A1C70538834
:1012A0000E491B05180F53880B40538053880C4977
:1012B0000B4080215380C90153880B42FCD15188D7
:1012C0000302064801400B435380064B984710BD6C
:1012D000AD0D0000020C0040000C0040FFF0FFFFCD
:1012E000FFBFFFFFE90D000010B50C78034B24028F
:1012F00004439847024BA4B25C8010BD91120000D9
:10130000000C004010B50400064B9847064B1C70BB
:10131000064B5C88064B2405240F98472000054B9C
:10132000984710BDAD0D0000020C0040000C0040BD
:10133000E90D0000D9110000D37870B5002B31D130
:101340001378802B47D080241B06640223435478F3
:1013500002252600AE4307D19478002C37D1802493
:10136000A402234341605478013C012C35D9A024C8
:101370000D042D0CE4052C431C438462D0240D0C79
:1013800024062C431C438462D478002C09D15B03CF
:1013900003D59378012B23D041615378013B012B76
:1013A00013D970BDA0230C04240CDB05234341603A
:1013B0008362D0230C0C1B0623438362D378002B5B
:1013C000EFD15378013B012BEBD88160E9E7C024D2
:1013D000E4022343C6E70023B9E7024C2340C6E7F3
:1013E0008161DAE7FFFFFBFF0A0010B5C1090023A6
:1013F000002904D1064943098C46DB0163441F24BC
:101400000121204081401800024B984710BDC04682
:1014100000440041391300007047C04610B5054B29
:101420009847054B9847054B9847054B9847054B00
:10143000984710BDA90F0000190E000019140000F4
:101440001914000019140000FEE7C0462848294975
:10145000F8B588420DD0284A91420AD2CB439B1856
:1014600000229B0801339B0084588C5004329A421E
:10147000FAD1224A22498A4209D2D3435B18032176
:101480008B4300210433D31802C29A42FCD1FF21BE
:101490001C4B1D4A8B4393609023032502240C2789
:1014A00008261A4AFD395B00D150194AD378AB435C
:1014B0002343D370D378BB433343D3703022154BCF
:1014C000987B9043202210439873997BB943314312
:1014D000997380219A7BAA4322439A730E4A5368D8
:1014E0000B4353600D4B98470D4B9847FEE7C046A2
:1014F0008820000000000020680000206800002014
:10150000680100200000000000ED00E000700041D4
:101510000050004100480041004000411117000008
:1015200041150000044A1368002B03D018181060FE
:1015300018007047014BF9E7C40000206821002023
:1015400070B501240E4D2C70BFF35F8F62B6002280
:101550000C4B1A705A709A70DA701C710A4B9847CB
:101560002C70BFF35F8F62B6084B9847084B9847C3
:10157000084B984708490948094B9847FEE7C04679
:1015800000000020D00000201D1400001501000004
:10159000390C0000950D00002C200000FC000020FC
:1015A000090D0000002243088B4274D303098B42CB
:1015B0005FD3030A8B4244D3030B8B4228D3030C23
:1015C0008B420DD3FF22090212BA030C8B4202D3C5
:1015D0001212090265D0030B8B4219D300E0090AED
:1015E000C30B8B4201D3CB03C01A5241830B8B42F6
:1015F00001D38B03C01A5241430B8B4201D34B03DF
:10160000C01A5241030B8B4201D30B03C01A524143
:10161000C30A8B4201D3CB02C01A5241830A8B42C8
:1016200001D38B02C01A5241430A8B4201D34B02B1
:10163000C01A5241030A8B4201D30B02C01A524115
:10164000CDD2C3098B4201D3CB01C01A52418309C9
:101650008B4201D38B01C01A524143098B4201D303
:101660004B01C01A524103098B4201D30B01C01A2E
:101670005241C3088B4201D3CB00C01A52418308A8
:101680008B4201D38B00C01A524143088B4201D3D5
:101690004B00C01A5241411A00D201465241104635
:1016A0007047FFE701B5002000F006F802BDC04614
:1016B0000029F7D076E770477047C046F0B5CE46B0
:1016C000474615042D0C2E0080B50704140C3F0C62
:1016D0009946030C7E435D43674363437F19340C93
:1016E000E4199C46A54203D980235B029846C44472
:1016F0004B46514343433604360C250C24046544C1
:10170000A4195918491920000CBC90469946F0BDFF
:1017100070B500260C4D0D4C641BA410A64209D1D7
:10172000002600F0A1FC0A4D0A4C641BA410A6423E
:1017300005D170BDB300EB5898470136EEE7B30012
:10174000EB5898470136F2E774200000742000003F
:101750007420000078200000002310B59A4200D1C8
:1017600010BDCC5CC4540133F8E7030082189342E7
:1017700000D1704719700133F9E70023C25C0133CF
:10178000002AFBD1581E704730B59BB000910491E0
:1017900008496D4602910591012182244942E9815F
:1017A000A4006946AC8100F075F80023009A13701C
:1017B0001BB030BDFFFFFF7F10B513000A00010012
:1017C00002480068FFF7E0FF10BDC046040000209B
:1017D000F0B58E6885B007000C00039201939E421D
:1017E00039D890238A89DB001A4234D0032509694D
:1017F00023685B1A0293636902985D43EB0F5D19DE
:10180000019B6D1001331B18AB4200D91D0053051D
:1018100032D52900380000F031FB061E09D10C2317
:101820003B6040230120A28940421343A38105B0BD
:10183000F0BD029A2169FFF78FFFA389144A1A406D
:1018400080231343A381029B2661F61826606561FD
:10185000019EED1AA560019BB34200D21E0032002A
:101860000399206800F0ADFAA36800209B1BA360D9
:1018700023689E192660DAE72A00380000F05CFB36
:10188000061EE0D12169380000F0AEFAC7E7C04675
:101890007FFBFFFFF0B59FB0029005938B890F008F
:1018A00016001B0611D50B69002B0ED1402100F04C
:1018B000E5FA38603861002805D10C23029A013816
:1018C00013601FB0F0BD40237B61002306AD6B6148
:1018D00020336B761033AB7634002378002B47D15E
:1018E000A31B04930DD0A31B320039000298FFF70D
:1018F0006FFF431C00D1B5E06A69049B94466344C2
:101900006B612378002B00D1ACE00122002352420E
:101910006A6002A95432521801342B60EB60AB604C
:101920001370AB65584E05222178300000F03EFA66
:10193000621C002820D12968CB0604D5532302AEAF
:1019400020309B1918700B0704D553232B2002AEAF
:101950009B19187023782A2B16D000200A21099B86
:101960002278303A092A55D9002815D0099313E076
:10197000252BB5D00134B0E70123801B83402968B3
:1019800014000B432B60CDE7059B181D1B680590C9
:10199000002B39DB0993140023782E2B0BD16378AD
:1019A000621C2A2B3ED1059B02341A1D1B6805922E
:1019B000002B34DB0793354E21780322300000F0F2
:1019C000F5F9002806D04023801B83402A680134A3
:1019D00013432B60217806222D48661C297600F0DF
:1019E000E5F9002846D02B4B002B2FD12968059B09
:1019F0000722C90528D59B189343083305936B69C3
:101A0000039A9B186B6167E75B42EB6002230B4311
:101A10002B60C0E74B4301349B180120A0E7012352
:101A20005B42C7E7002314000A201A006B6021788C
:101A30003039092903D9002BBDD00792BBE74243B7
:101A4000013452180123F2E70733D5E705AB0093C1
:101A50003A00114B2900029800E000BF0390039B5D
:101A60000133CCD1BB890B985B0600D429E7012058
:101A7000404226E705AB00933A00074B2900029845
:101A800000F07AF8EAE7C046342000003A2000006F
:101A90003E20000000000000D1170000F7B515003F
:101AA00001938A680B6900900C00934200DA1300DE
:101AB00022002B6043321278002A01D001332B60C0
:101AC00023689B0602D52B6802332B600627236808
:101AD0001F4027D0230043331B785A1E93412268AE
:101AE000920630D42200019943320098089EB047F4
:101AF000431C25D0062320682A68E168034000259E
:101B0000042B03D18D1AEB43DB171D40A368226918
:101B1000934201DD9B1AED180027BD4220D1002021
:101B200010E00137E3682A689B1A9F42D2DA22004C
:101B30000123193201990098089EB047431CF0D147
:101B400001204042FEBD3020E118433108702100E1
:101B50005A1C45310978A218433202331170C1E78B
:101B6000220001231A3201990098089EB047431CB5
:101B7000E6D00137D1E70000F0B58BB006920A003D
:101B800043320793059004920A7E0C00109B6E2A44
:101B900000D18FE017D8632A2CD008D8002A00D1B2
:101BA00099E0582A54D026004236327029E0642A3F
:101BB00001D0692AF7D121681A68080623D5111DBA
:101BC0001960156825E0732A00D188E008D86F2ACB
:101BD00029D0702AE7D1202209680A43226003E055
:101BE000752A20D0782ADED1220078214532117062
:101BF0006C4A30E00E001A684236111D19601368F5
:101C00003370012379E04906D9D5111D19600023ED
:101C1000D55E002D03DA2D23049A6D421370624BBA
:101C20000A2703932FE020681968050603D5081DCD
:101C300018600D6805E04006F9D50D68081D1860AC
:101C4000ADB2594B082703936F2A18D00A2716E024
:101C500045310A70544A03921A682168101D1860B1
:101C60001568080622D5CB0702D520231943216029
:101C70001027002D03D1202322689A4322602300DD
:101C8000002243331A706368A360002B5CDB0422DC
:101C9000216891432160002D58D1049E002B64D00F
:101CA0002600039B42361B7833705EE04806DAD587
:101CB000ADB2D8E709681A68080605D5111D196084
:101CC000136862691A6006E04906F7D5111D1960AC
:101CD0001368A28A1A800023049E236154E01A68C4
:101CE000111D1960166800216268300000F05EF86E
:101CF000002801D0801B6060636823610023049A80
:101D0000137041E02369320006990598079DA847A2
:101D1000431C43D0236800259B070FD4099BE06830
:101D200098423DDA18003BE022000123193206995F
:101D30000598079EB047431C30D00135E368099AE7
:101D40009B1A9D42F0DBE9E7002DA9D0049E2800F4
:101D50003900FFF7ADFC039B013E5B5C280033704C
:101D60003900FFF71FFC051EF1D1082F09D12368A8
:101D7000DB0706D563682269934202DC3023013E0B
:101D80003370049B9B1B2361079B09AA00932100CE
:101D9000069B0598FFF782FE431CB3D10120404209
:101DA0000BB0F0BD5620000045200000C9B28218DB
:101DB000904201D10020704703788B42FBD0013064
:101DC000F6E710B5884202D98B18984208D3002351
:101DD0009A4207D0CC5CC4540133F9E78B5C83543E
:101DE000013AFBD210BD000070B50500002910D0EB
:101DF0000C1F2368002B00DAE418280000F0D4F848
:101E00001D4A1368002B05D163601460280000F0A0
:101E1000CCF870BDA34209D9216860188342F3D180
:101E200018685B6841182160EEE713005A68002AC1
:101E300001D0A242F9D919685818A0420BD12068E4
:101E40000918581819608242E0D110685268411888
:101E500019605A60DAE7A04202D90C232B60D5E75B
:101E600021686018824203D11068526841182160CD
:101E700062605C60CAE7C046C8000020032370B5FA
:101E8000CD1C9D43083506000C2D1ED20C25A94201
:101E90001DD8300000F088F8254A14682100002978
:101EA00019D1244C2368002B03D1300000F06AF8CC
:101EB00020602900300000F065F8431C2CD10C2371
:101EC0003000336000F071F803E0002DDFDA0C23FE
:101ED0003360002070BD0B685B1B1AD40B2B03D939
:101EE0000B60CC18256003E08C420ED16368136050
:101EF000300000F05AF8200007220B30231D9043D9
:101F0000C31AE7D05A42E250E4E74B6863600C0022
:101F1000EEE70C004968C2E70323C41C9C43A042BF
:101F2000E0D0211A300000F02DF8431CDAD1C6E7CA
:101F3000C8000020CC000020F8B507000D001600F6
:101F4000002905D11100FFF799FF04002000F8BD1A
:101F5000002A03D1FFF748FF3400F7E700F026F826
:101F60002C008642F2D931003800FFF787FF041EAB
:101F7000ECD029003200FFF7EFFB29003800FFF713
:101F800033FFE3E7002370B5064C0500080023602B
:101F9000FFF7C8FA431C03D12368002B00D02B6045
:101FA00070BDC04664010020704770470B1F1B685E
:101FB000181F002B01DA0B58C018704700080042A8
:101FC000000C0042001000420014004200180042C1
:101FD000001C00420100000002000000040000009C
:101FE0000800000000100000002000000040000079
:101FF000008000000000010000000200000004005A
:102000000000080025630000E60E0000FE0E000040
:10201000FE0E0000AA0E0000AA0E0000B00E000086
:10202000B60E0000C40E0000EC0E000068690D0A38
:1020300000000000232D302B2000686C4C006566EA
:102040006745464700303132333435363738394109
:10205000424344454600303132333435363738391F
:102060006162636465660000F8B5C046F8BC08BCF0
:102070009E467047DD000000F8B5C046F8BC08BCBD
:082080009E467047B500000008
:10208800010000000800002000000000000000001F
:102098000000000000000000000000000000000038
:1020A8000000000000000000000000000000000028
:1020B8000000000000000000000000000000000018
:1020C8000000000000000000000000000000000008
:1020D80000000000000000000000000000000000F8
:0820E8000000000000000000F0
:040000030000144D98
:00000001FF
