S015000050726F6A6563744F776C5361742E73726563DE
S113000048290020894400008544000085440000FC
S113001000000000000000000000000000000000DC
S11300200000000000000000000000008544000003
S1130030000000000000000085440000854400002A
S1130040854400008544000085440000812F0000A1
S11300502D2F000085440000854400003D2600004B
S113006085440000D9390000E9390000F93900005D
S1130070093A0000193A0000293A00001130000042
S11300802130000031300000854400008544000028
S11300908544000085440000854400008544000038
S11300A08544000085440000854400008544000028
S11300B00000000010B5064C2378002B07D1054B37
S11300C0002B02D0044800E000BF0123237010BDC0
S11300D0F400002000000000484B0000084B10B55D
S11300E0002B03D00749084800E000BF0748036815
S11300F0002B00D110BD064B002BFBD09847F9E72D
S113010000000000F8000020484B0000484B0000AD
S113011000000000024A1378013BDBB21370704701
S113012026010020002070470020704710B5064BC0
S11301301879023843425841C3001B1A0349C918AD
S1130140034B984710BDC0467C07002018010020CF
S1130150153B000070B5224B1B78DBB2022B02D991
S113016000221F4B1A701E4B1C78E4B26200002060
S11301701C4BD0521C4AA30019194900A1258D54C7
S1130180531820225A705880621E53425A4152001A
S1130190154B5B189A800222DA8000221A811349D7
S11301A0E3001B1B5A54CB183E3A5A703F329A70E4
S11301B00022DA701A715A7108229A71E3001B1B2B
S11301C0C91820000A4B984720000A4B984700287A
S11301D004D0034A13780133DBB2137070BDC046F8
S11301E026010020400200205C03002018010020AA
S11301F0153B0000E11E0000F0B585B004004E4B35
S11302001B5C002B01D005B0F0BD4C4B9847002877
S113021049D063004A4A9D5A4A4B98478542F2D0D6
S1130220EFF310835A425341039372B6BFF35F8FC7
S11302300022454B1A70039E444B1D5DEDB26300D2
S11302405B195B00424A9B5A002B34D00022414B7D
S11302501A80414B1B5D002B4CD16B426B41DBB2CE
S11302603A4A13550122344B1A55002E04D0364B0A
S11302701A70BFF35F8F62B62F0063005B195B00D7
S1130280334A9B5A1E00403E721E9641F6B2402BE2
S11302903AD02A4B9847002830D02A4B984763001D
S11302A0274A985234E06300254A9D5A2B4B9847BD
S11302B08542B5D1A7E7274A1388013313801F4B22
S11302C09847002803D1234B1B88632B08D91B4B69
S11302D098470028BAD0224B1E4A12889A42B5D8B1
S11302E0002E00D18FE70122174B1A70BFF35F8FE6
S11302F062B688E76A426A41D5B2B3E7174B9847BA
S113030063000F4A985203E0630000210C4A99529B
S11303108420012C00D003386300DB195B000C4AF5
S11303209B5A6200521992010E4CA2180E49009178
S113033031000E4CA04766E75803002091180000D6
S113034054030020A5180000F000002050030020F2
S113035048030020120100204402002095180000E8
S11303601F03000048020020710300009D1B0000D1
S113037010B5843A53425341002800D010BD094AB5
S1130380D25C514251415A005218520000210024BB
S113039005481452054AD154054AD1541800054B56
S11303A09847EBE750030020480300204402002054
S11303B058030020F901000010B5084C2078084BC0
S11303C0984723780133DBB2012B03D90022034B76
S11303D01A7010BD014A1370FBE7C04610010020DB
S11303E0F901000030B583B004000800114B1B5D17
S11303F0002B1CD16300104A9A5A92B2A3001B1915
S11304005B000E49CB181B89934210D062000A4B43
S1130410D25AA3001B195B00CB181A811A00084B8F
S113042000930A230021074DA847024B185503B037
S113043030BDC0463C020020400200205C03002086
S1130440AD0400009D1B000030B583B0EFF31083B2
S11304505C426341019372B6BFF35F8F0024104B7B
S11304601C70019B002914D00E4C4500295B0A43E3
S11304702A53002B05D00122094B1A70BFF35F8F5A
S113048062B68621012800D00339074B984703B090
S113049030BD044C4500295B91432953E9E7C0462C
S11304A0F000002040020020E503000070B51000B9
S11304B08638434258410021094B195409494400E4
S11304C0635A7C25AB436352074983001C186400BC
S11304D00C192389AB4323811100044B984770BD49
S11304E03C020020400200205C030020E5030000E1
S11304F010B5064A1378013BDBB213701078C0B212
S1130500034B98470022034B1A7010BD27010020AB
S1130510F91E00001401002010B5254B187902388B
S1130520444244411A7853B2002B05DB6023134044
S11305300020202B17D010BD602313400020202B57
S1130540F9D11B4B5B78212B2FD1194BDB88072B5F
S1130550F1D1174BE000041B1648001998600722DC
S11305609A810120E7E7124B5B78202B03D0222BE2
S113057012D00020DFE70E4BDB880020072BDAD1F6
S11305800B4B0D4A1A61E000041B0A4800199860DD
S113059007229A810120CEE7054B5B88012119408F
S11305A02000064B98470120C5E70020C3E7C0465A
S11305B07C070020180100202D010000111F0000FD
S11305C010B5402201210020014B984710BDC046C0
S11305D04904000010B582B0EFF310835A4253412E
S11305E0019372B6BFF35F8F00220B4B1A7001990F
S11305F042000A4BD45A0A4B1B5C9B185B00094A05
S1130600985A001B002905D00122034B1A70BFF32E
S11306105F8F62B602B010BDF000002034020020EB
S1130620300200202802002010B5034B9847431ED7
S11306309841C0B210BDC046D505000030B585B0A4
S11306400400EFF310835A425341039372B6BFF38D
S11306505F8F0022254B1A700399254B1D5CEDB268
S1130660244B1B5C002B09D14300234A9A5A5B1983
S11306705B002248185A92B282420AD20020002912
S113068005D00122194B1A70BFF35F8F62B605B013
S113069030BD63000020184A98526B426B41DBB2B4
S11306A0134A13550122134B1A55002904D00F4B3A
S11306B01A70BFF35F8F62B62000114B9847002871
S11306C00FD10520012C00D0033862005219920189
S11306D00C4CA2180C4B0093402301210B4CA04757
S11306E0D5E720000A4B9847EBE7C046F00000200E
S11306F030020020380200203402002028020020AA
S11307002906000028010020CD0700009D1B0000E1
S1130710DD3A0000F0B5C64600B51F4B1B78DBB2CE
S1130720022B02D900221C4B1A701B4B1C78E4B21A
S113073000251A4B1D551A4B1D551A4B1D551A4BA6
S1130740A60000229046F5529B195D806700174B66
S1130750FD522000164B9847164B42461A55164B2D
S11307601A55164BF5529B195D80154BFD5220000E
S1130770144B9847002807D0074A13780133DBB29B
S113078013701378022B02D004BC9046F0BD0122F2
S11307900D4B1A70F8E7C0462701002058030020CB
S11307A0440200205003002048030020540300208A
S11307B0F901000038020020300200202802002045
S11307C0340200203D0600001401002010B582B060
S11307D01400531F5A425341002812D1104AD25CCC
S11307E050424241D2B200290DD089B25800821839
S11307F052000C48115200210B4AD15418000B4BE3
S1130800984702B010BD5B009A189201084B9A18E1
S1130810084B0093402301312000074CA047F0E728
S11308203002002028020020380200203D0600008B
S113083028010020CD0700009D1B000010B50020FA
S1130840014B984710BDC04629060000F0B5DE46AE
S113085057464E464546E0B585B001900400C200B7
S1130860121A2D4B9B189B79093B5A425341DBB218
S11308709A4600239B46294B99460026284F294B2C
S1130880984605E09A422DD3274B1B78002B20D0A5
S1130890EFF310835A425341039372B6BFF35F8F51
S11308A04B461E7003986300DA5B92B24146095DC1
S11308B0C9B25B185B001D4D5B5B9BB20028E1D0A5
S11308C001208446154865460570BFF35F8F62B604
S11308D0D8E79B46584605B03CBC90469946A2468C
S11308E0AB46F0BD63005918890111484118895C71
S11308F0584608438346013292B209495A52019834
S11309000C4B98475346002BE4D05B461B029B4696
S113091000239A46BCE7C04618010020F0000020DE
S1130920340200203002002014010020280200209C
S1130930280100203D06000010B50020014B984717
S113094010BDC0464D08000010B582B0EFF310830F
S11309505A425341019372B6BFF35F8F0022154B85
S11309601A70019C144B1A5CD2B243009B185B00B2
S113097012495B5A402B0BD04020C01A002C05D0E2
S113098001220C4B1A70BFF35F8F62B602B010BD28
S11309900B49095C0029EFD10A49095C0029EBD114
S11309A00131084B195453425A41D2B2024B1A54E2
S11309B00023E1E7F000002050030020480300205A
S11309C0580300204402002010B5034B9847431EEF
S11309D09841C0B210BDC0464909000010B50020BE
S11309E0014B984710BDC046C9090000F0B5DE466A
S11309F057464E464546E0B585B000900C000600CB
S1130A00C200121A254B9B189D79093D6B425D412A
S1130A10EDB2234B9A46234B98462CE0EFF3108318
S1130A205A425341039372B6BFF35F8F0023524679
S1130A301370039B019343469B5D1B4A91467000D0
S1130A401B1858008446805A421C934662465946F5
S1130A504F46D1539B01154AD3181C54019B002BBC
S1130A6005D001220E4B1A70BFF35F8F62B6002DC2
S1130A7011D02412002500980D4B98470028CDD1A1
S1130A800C4B1B78002BF6D105B03CBC9046994624
S1130A90A246AB46F0BD0120F6E7C046180100208F
S1130AA0F0000020500300204803002048020020EA
S1130AB0C90900001401002010B501000020014BF9
S1130AC0984710BDED09000010B5114B1B681A685A
S1130AD09478D3781B022343D2180378C018904229
S1130AE010D24378042B0FD08B420AD00378C0185D
S1130AF0904205D24378042B08D08B42F6D100E013
S1130B00002010BD0020FCE70020FAE70020F8E7F1
S1130B107C03002010B5034B5B887F201840024BF8
S1130B20984710BD7C070020751D000070B5194B57
S1130B301B780022002B29D0174B1B681B681C79DB
S1130B40844223D9154A13609A78DC78240214432A
S1130B501C19A3421CD20025012607E00F4A13608A
S1130B600FE01A789B183500A3420CD25A78042A55
S1130B70F7D19A788242F4D1DA788A42F1D1002D01
S1130B80ECD1012202E0054A13600022100070BD7E
S1130B900022FBE7780300207C0300208003002070
S1130BA0F0B5C64600B504000021134B9847051E56
S1130BB003D1280004BC9046F0BD104B1B685B6851
S1130BC0A200D3589846DB689847010020000A4BDE
S1130BD09847051EEDD00A4B1C680A4E0A4F0521A2
S1130BE02000B047041E02D08078B847F7E7434698
S1130BF05B689847DDE7C0462D0B00007C030020AE
S1130C0080030020C90A0000B5180000F8B50500EB
S1130C100F4B9847002819D00E4B1C680E4E0F4FEF
S1130C2005212000B047041E09D00379427912023D
S1130C301A43C1788078B8470028F1D106E0084B00
S1130C401B685B68AD00EB581B689847F8BDC0464D
S1130C502D0B000080030020C90A00000D190000BC
S1130C607C03002010B5014B984710BD251E0000E1
S1130C7070B50E4B1B78002B11D00D4B1B681B68F5
S1130C801B79002B0BD000240A4E094D2000B047DD
S1130C900134E4B22B681B681B79A342F6D8002206
S1130CA0024B1A700132044B1A8070BD7803002085
S1130CB07C030020A10B00007003002070B50E4BD4
S1130CC01B78002B17D00D4B1B681A681279002A69
S1130CD011D00024094D06E00134E4B22B681A68EF
S1130CE01279A24207D95B68A200D3581B69002B72
S1130CF0F2D09847F0E770BD780300207C03002011
S1130D00F8B5AC4B00229A811A615A611B785AB229
S1130D10002A13DB60221A4200D1D9E0A54B1A78CD
S1130D201F231340012B00D176E1A24B1A781F2315
S1130D3013400020022B00D1CCE1F8BD9D4AD2889B
S1130D400020002AF9D060211942E7D11F210B406D
S1130D5008D198494978062923D0082900D186E08A
S1130D60002917D0012B00D189E0022BD6D1914B59
S1130D705B780020002B00D0A8E1022AD5D18D4B4E
S1130D8018798D4B98478D4B1880022118008C4B95
S1130D909847FEE0022AC8D102318A48884B984716
S1130DA0F7E0844B5A88130A022B23D0D9B20229C4
S1130DB00FD9032B34D00F2B00D084E1824B9868D9
S1130DC00028B2D08378C178090219437C4B984734
S1130DD007E0012B00D076E17B4B18680178784B53
S1130DE09847744BDA889B89934200D8D1E0714BC1
S1130DF09A81CEE0D2B2744B1B685B7C934200D8DC
S1130E0093E7714B5B68D200D0588378C1780902AC
S1130E1019436B4B9847674B9B6802225A70E0E773
S1130E20FF231A40012A1FD0002A18D0022A00D119
S1130E3078E1032A00D071E70721644C644A002357
S1130E40E05C508001330232D8B28142F8D84900C4
S1130E5002315F48017089B2594B9847C1E70421B8
S1130E605C48574B9847BCE75B4C1021E6E7012AE6
S1130E7000D05AE701215948514B984789E04D4920
S1130E8049780A2900D070E7012A00D0C4E0534B06
S1130E901B78002B00D1BFE0464B1C79504B1D68DA
S1130EA02B681B79A34200D8B6E0002120004D4BEB
S1130EB09847002800D131E76B68A400E358DB6849
S1130EC09847494B1870012118003D4B984760E042
S1130ED01F2213405FD1374A5278032A00D1F4E02D
S1130EE0D1B203293BD9052A4BD0092A53D1314B1E
S1130EF0DB88002B00D018E73C4B9847002800D132
S1130F000CE72C4B9A78304B1B685B7C9A4200DDD3
S1130F1004E7374B9847274B9B78304A1370002BD4
S1130F2037D0344A94466344DB00274A5268D318C6
S1130F302B4A13601B681B79002B2AD000242E4DEA
S1130F40160000212000A847002800D1E6E601345D
S1130F50E4B233681B681B79A342F2D819E0012A72
S1130F6019D1144BDB88002B00D0DEE6114B5B88D3
S1130F70012B00D0D9E6134A138802218B43138036
S1130F8007E00C4BDB88002B00D0CEE61B4A094B54
S1130F901A610120D1E6012B32D0022B00D0BDE62C
S1130FA0044B5B78012B6DD0032B00D179E000203A
S1130FB08CE0C0467C070020151A00007203002054
S1130FC0951D00007003002074000020684A000092
S1130FD0280000204C00002050000020780300204E
S1130FE07C0300202D0B000074030020851D0000ED
S1130FF0710C0000FFFFFF1F0D0C0000150B00001B
S11310004A4A52780B2AC8D1484BDB88002B03D1BB
S1131010474B1B78002B27D1454B1B780020002B16
S113102000D18AE6414B1C79424B1D682B681B7921
S1131030A34200D881E6002120003F4B98470028B6
S113104000D172E66B68A200D558EB68984701009E
S11310502000394B9847002800D166E6AB689847D2
S1131060002800D069E660E6304B1D795C882800D2
S1131070324B9847002800D150E6E1B22800304BAB
S1131080984723E0294BDB88002B00D04DE6274B03
S11310905B88002B00D048E6244B1879294B9847ED
S11310A014E0224BDB88002B00D03EE61F4B5B880C
S11310B0002B00D039E61D4C2079234B984720792A
S11310C0224B984702E0002000E00020002800D0D6
S11310D033E623E6164B1B78002B00D12DE6154B87
S11310E01B681A681279002A1AD00025124E114F73
S11310F05B68AA00D458E368984701002800B04709
S1131100002800D119E6A3689847002800D014E607
S11311100135EDB23B681A681279AA42E8D80CE6A8
S113112000200AE60C210A4C88E6C0467C07002011
S1131130780300207C0300202D0B0000A10B00008D
S11311400D0C0000591B000055180000291A00005E
S113115064000020044A137802210B43137053786F
S11311605BB2002BFBDB70470018004000B583B076
S1131170124A936940210B43936101A900230B7028
S113118005200F4B984705200E4B98470E4A1378BD
S113119001210B43137053785BB2002BFBDB0B4B29
S11311A019004031002204C39942FCD11022084B9B
S11311B01A60084B984703B000BDC04600040040C5
S11311C02D430000A14200000018004094050020B7
S11311D000E100E05511000010B584B003AB00221B
S11311E01A7003325A70013A9A70013ADA70274B36
S11311F01B78834207D0002807D1244B1B78002B8F
S113120023D1224B187004B010BD03AB1B5C204AE1
S1131210D25CFF2A00D1FEE7EFF3108251424A412B
S1131220019272B6BFF35F8F00211A4A1170019CBC
S11312301749CA5C0132CA54002CDED00122154B76
S11312401A70BFF35F8F62B6D7E703AAD35C104A64
S1131250D25C002A00D1FEE7EFF3108251424A41EA
S1131260029272B6BFF35F8F00210A4A1170029C8A
S11312700749CA5C013ACA54002CC2D00122054B6A
S11312801A70BFF35F8F62B6BBE7C046CC04002080
S1131290DC080020F000002043060BD00F2303409D
S11312A05B00C00918180238830018188000024B2C
S11312B0181870470020FCE78C030020F0B5D646D0
S11312C04F464646C0B589468D796BB2002B26DB66
S11312D028005E4B984704000F272F40038A984646
S11312E04B461B889A46837C5B076AD4E368534465
S11312F01E00E360A3689E4200D874E0E360A37C10
S113130001229343A3742368002B03D0E1682A00CD
S1131310002098471CBC90469946A246F0BD280080
S11313204A4B984704000F272F40038A98464B46A0
S11313305E88C3689C466644C66081688E4225D038
S11313408D1BADB2424B9D4206D91D00414618008B
S1131350404B98476D1AADB2A27C0023920707D583
S1131360414628003C4B984789B24B424B41DBB283
S11313705B00A27C02218A431343A374626892191E
S11313802B0039003548364CA047C3E7837C9B07C4
S11313900BD4837C0122934383740368002BB9D05C
S11313A02A00310000209847B4E7837C022293434B
S11313B0837442689219002339002848284CA047B6
S11313C0A8E74368C268944663441E0041468068A7
S11313D0214B98470A007B1EDB0022495918300034
S11313E0214B984782E74A469288524500D086E7C7
S11313F09E4200D183E79B1B9DB2154B9D4216D99B
S11314001D0041461800134B98476B1A9BB2984530
S113141014D9A37C04221343A3747A1ED200114B63
S1131420D218434639000D48104CA04772E7414694
S11314302800094B98476B1A9BB2E8E76268921937
S113144039000648094CA04764E7C04699120000D9
S1131450FF1F00005D4900008947000014060020BA
S113146055250000D4050020454A0000A9250000A8
S113147010B50522054B1A70054C80212000054B40
S1131480984700212000044B984710BD8A03002090
S113149014060020A9240000CF24000070B5084CD5
S11314A006212000074DA84704212000A847022157
S11314B02000054B98470220044B984770BDC04656
S11314C014060020E91F0000C91F0000D911000004
S11314D070B5134B9B8C9B061CD41149D022CB684E
S11314E01340D02BFBD10F4C022120000E4B984708
S11314F0042120000D4DA8470D4A062120000D4B64
S1131500984706212000A84703200B4B98470B4B14
S1131510984770BD02491022CB681A42FCD0E2E71A
S11315200008004014060020E91F0000C91F000045
S11315309D140000A51F0000D9110000D11E000059
S113154030B583B004001E4B984780232268937201
S113155001AD28001B4B984703236B702900200022
S1131560194B984719492000194B9847194B0222E7
S113157000212000184DA847184B0022002120000C
S1131580A847174B012200212000A847022200216E
S11315902000144DA847002200212000A847012262
S11315A000212000A84721680B890F4A1A40802394
S11315B0DB0013430B8100220C4B1A7003B030BDC7
S11315C0710C0000F52100000522000094070020A2
S11315D0F92500002917000005200000591A000011
S11315E02D16000055200000FFF3FFFF8A030020A2
S11315F010B50322074B1A70074C08492000084B0A
S11316009847084B9A68002300212000064CA04705
S113161010BDC0468A030020140600209407002051
S1131620F92500007C0700205525000010B58979B4
S11316304BB2002B06DB0E4B1B78022B0FD0032B77
S113164011D010BD0A4B1B78012B05D0042BF8D107
S11316500848094B9847F4E7084B9847F1E70422F8
S1131660034B1A70EDE70348034B9847E9E7C0467C
S11316708A03002014060020A9240000F1150000AC
S113168070B5204B1B88204A9489E41AA4B2002C1C
S113169018D11E4A11885B189BB213801A4AD2884B
S11316A09A4223D01A4B1B78002B1FD1164B5B692F
S11316B0002B23D09847002820D00022114B1A80F9
S11316C0114B9C893F2C19D90022114B1A704024CC
S11316D00C4D2B880C4A9268D218230000210D4827
S11316E00D4EB0472B88E4182C8070BD04220B4BA0
S11316F01A700B4907480B4B9847F6E70122044B35
S11317001A70E5E7860300207C0700208803002088
S11317108403002014060020552500008A030020BD
S113172094070020F925000010B50C002C4B1B7801
S1131730002B07D02B4B1B69002B00D098470022AD
S1131740274B1A702388082B02D0274B984710BDCB
S1131750244A264B1978117059785170D8780002B0
S113176099780918518058790002197909189180DB
S1131770D97909029B795B18D3801D4B98470028BF
S113178016D0184B1B787F2B15D8164BDB88002BF3
S113179022D00023174A1380174A13800122104BCA
S11317A01A704023114A00211448154CA047CEE773
S11317B00D4B9847CBE700230E4A13800E4A138043
S11317C00222074B1A704023084A00210B480C4C94
S11317D0A0470C4B9847BAE70B4B9847B7E7C0466E
S11317E08A0300207C070020711400009407002065
S11317F0010D000088030020860300201406002049
S1131800A925000081160000F115000010B5024B57
S11318109847024B984710BDBD0C0000751F00008F
S113182010B5074C04212000064B984702212000E4
S1131830054B98470120054B9847054B984710BD29
S113184014060020E91F0000C91F0000D911000080
S1131850C11E000010B5040001000A480A4B984755
S113186020000A4B9847837CDB070AD5837C01223E
S1131870934383740368002B03D0C16822000120C2
S1131880984710BD14060020492400009912000056
S113189000207047024B1B68188A8004400D704773
S11318A014060020024B1B68188A80B27047C04699
S11318B01406002070B582B0040001AD28000D4B61
S11318C0984720000C4B98472C700023EB700B4E6C
S11318D0290030000A4B98470F2121400022300094
S11318E0084B9847002221003000074B984702B06C
S11318F070BDC046F52100005518000014060020F4
S1131900052200002D20000025210000F0B583B041
S113191005000F00140001AE3000364B98473570B7
S1131920082C13D8002201AB5A702800324B984778
S1131930048203213940012938D0022943D00023ED
S113194003293DD1042201ABDA7032E0102C03D814
S1131950012201AB5A70E8E7202C03D8022201AB24
S11319605A70E2E7402C03D8032201AB5A70DCE73B
S1131970802C03D8042201AB5A70D6E780235B0085
S11319809C4203D8052201AB5A70CEE780239B000A
S11319909C4203D8062201AB5A70C6E7174A0023BB
S11319A094420DD8072201AB5A70BEE7022201AB64
S11319B0DA7001A91248134B98470023002806D077
S11319C0180003B0F0BD032201ABDA70F1E70F2178
S11319D029400B4C0C4B002220000C4EB047002237
S11319E0290020000A4EB047012229002000B047F8
S11319F00123E5E7F521000099120000FF03000030
S1131A001406002005220000BD120000052000007D
S1131A105520000010B501000148024B984710BD45
S1131A20140600207F24000010B504000F23034097
S1131A300020082B00D910BD21000448044B98470E
S1131A402000044B98470120F5E7C0461406002007
S1131A50A92400005518000070B5344B1B78012BE5
S1131A600AD0022B5FD0324B1B69002B00D0984761
S1131A7000222E4B1A7070BD0D882D4B9B892D4A68
S1131A8014886219934201DA1D1BADB2284B986881
S1131A9000192A002849294B98476419A4B2254BF8
S1131AA01C80402D0AD0224B9C815B69002B02D004
S1131AB09847002814D0224B9847DCE71C4BDA885F
S1131AC0204B1B881B199A42EDDD194B9B89A342BD
S1131AD00CD04023184A00211B481C4CA047CAE7DD
S1131AE00522124B1A701A4B9847C4E7104B5B69D6
S1131AF0002B0BD0984700280FD012490D4A0B88B1
S1131B0010881B180B8000231380E2E70522074B83
S1131B101A7000200E4B9847ADE70522034B1A704C
S1131B200B4B9847A7E70B4B9847A4E78A03002081
S1131B307C0700208603002094070020454A00000B
S1131B40F11500008803002014060020A9250000D8
S1131B50291A00008116000070B504000F23034009
S1131B600020082B00D970BD2000094B98470500C0
S1131B7021000848084B9847AB7C0120DB07F2D5CD
S1131B80AB7C01229343AB742B6898470120EAE7AE
S1131B909912000014060020CF240000F0B587B08D
S1131BA005000391029201930F2606400024082E9B
S1131BB002D9200007B0F0BD644B9847041E00D042
S1131BC0BDE02800624B98470700EFF310835A42A8
S1131BD05341059372B6BFF35F8F00225D4B1A70B9
S1131BE0059A837CDB0708D5002AE2D00122594BF1
S1131BF01A70BFF35F8F62B6DBE7837C01210B436E
S1131C008374002A05D00122524B1A70BFF35F8FF0
S1131C1062B6029B7B60019BBB600023FB600C9B54
S1131C203B600123039A13405A00BB7C02218B437F
S1131C30134304229343BB746BB2002B20DB019B40
S1131C40002B6FD09CB2444B9C425AD9398A1C0059
S1131C501800424B9847631A9AB23B8A9A4257D269
S1131C60BA7C04210A43BA74721ED2003C49521849
S1131C7031003C483C4CA04744424441E4B298E71C
S1131C80019B002B27D09DB2334B9D4206D9398A44
S1131C901D001800314B98476B1A9DB2BB7C9B0703
S1131CA007D5398A2800314B984789B24C424C41B8
S1131CB0E4B2012020404000BC7C02239C43044346
S1131CC0BC742B00029A31002648294CA047444298
S1131CD04441E4B26DE7BB7C9B0705D5BB7C022283
S1131CE09343BB740025ECE7BB7C01229343BB7494
S1131CF00C9B002B25D02A000021002098470124AA
S1131D0057E7398A2000194B9847631A9AB2A4E717
S1131D101300029A31001348134CA0474442444133
S1131D20E4B246E7BB7C01229343BB740C9B002BBB
S1131D3009D02A00002100209847012439E7002413
S1131D4037E7012435E7012433E7C046151A0000BC
S1131D5099120000F0000020FF1F00005D49000000
S1131D60D405002014060020A9250000894700009E
S1131D7055250000024B1B6880221043987270475F
S1131D8014060020024B1B68987A4006400E7047E8
S1131D9014060020014B9860998170477C0700204D
S1131DA070B50320164B9847164C226813890121FD
S1131DB08B431381144A03312000144EB047144A54
S1131DC000212000B047134A01212000B047124AE5
S1131DD002212000B04704212000104DA847002113
S1131DE02000A84701212000A84702212000A8477D
S1131DF00B4A06212000B04706212000A84770BDE9
S1131E00D91100001406002021180000A51F0000AD
S1131E100D18000041150000D1140000C91F000076
S1131E209D14000070B582B0EFF310835A42534101
S1131E30009372B6BFF35F8F0026184B1E70009C90
S1131E4001AD2800164B9847AE70164E2A0016496D
S1131E503000164B98473000154B9847154B9B8C18
S1131E609B0614D41349D022CB681340D02BFBD14A
S1131E700120114B9847114B9847002C05D00122A3
S1131E80064B1A70BFF35F8F62B602B070BD09498A
S1131E901022CB681A42FCD0EAE7C046F0000020CA
S1131EA01D2D000014060020005000412D2D0000BF
S1131EB02926000000080040D9110000A11D0000DF
S1131EC08022D205014B9A617047C046804400418C
S1131ED08022D205014B5A617047C04680440041BC
S1131EE010B50122024B1A70024B9847012010BD15
S1131EF0CD040020A93C000010B50022024B1A704A
S1131F00024B984710BDC046CD040020E13C0000C0
S1131F10704700008022D205014B5A617047C046C9
S1131F20804400418022D205014B9A617047C0462B
S1131F308044004170477047704770477047000005
S1131F4010B5FA218900094B984789B2002904D1B8
S1131F508022D205064B5A6110BDFA235B009942D8
S1131F60FAD18022D205024B9A61F5E78947000035
S1131F708044004110B5074B1B78002B03D0064B5F
S1131F801B78002B00D110BD044B9847044B984795
S1131F90F9E7C046CE040020CD04002095180000C7
S1131FA0411F000010B50B002E339B001A50AA22CB
S1131FB052004900835A034C095B0B4383520020AF
S1131FC010BDC046844A00004900064BCB5A026843
S1131FD09383AB214900425A1A4342520268138345
S1131FE000207047844A00004900054BCA5AAB21BF
S1131FF04900435A9343435203689A82002070472E
S1132000844A000010B58C00A4183434A4000419C8
S1132010636040185930FF30037803498A5C1343E6
S11320200370002010BDC046944A000010B58B0018
S11320309B1834339B00C31800245C60401859304B
S1132040FF30034B9A5C037893430370002010BD68
S1132050944A000070B50F230B40C4186134FF3458
S113206025782F4EB65C35432570002A29D1002BE4
S113207012D103250A24FF3406683555032A09D1F1
S113208049B2002944DB02685B01D3180A33FF33E9
S113209020221A70002070BD4CB2002C08DB5C01B9
S11320A00568AC4664440A34FF3401252570E5E72D
S11320B05C010568AC4664440A34FF34022525708B
S11320C0DCE7012A1AD1002B05D102680C210A236E
S11320D0FF33D154DEE749B2002907DB02685B0114
S11320E0D3180A33FF3304221A70D3E702685B0162
S11320F0D3180A33FF3308221A70CBE7022ABDD162
S113210002685B01D3180A33FF3310221A70C1E747
S113211002685B01D3180A33FF3340221A70B9E70F
S1132120944A000070B50F230B40C4186134FF3487
S11321302F4DAE5C2578B5432570002A29D1002B9C
S113214012D103258424640006683555032A09D175
S113215049B2002944DB02685B01D3180933FF3319
S113216020221A70002070BD4CB2002C08DB5C01E8
S11321700568AC4664440934FF3401252570E5E75D
S11321805C010568AC4664440934FF3402252570BB
S1132190DCE7012A1AD1002B05D102680C2109338E
S11321A0FF33D154DEE749B2002907DB02685B0143
S11321B0D3180933FF3304221A70D3E702685B0192
S11321C0D3180933FF3308221A70CBE7022ABDD192
S11321D002685B01D3180933FF3310221A70C1E778
S11321E002685B01D3180933FF3340221A70B9E740
S11321F0944A000000230370437083700133C3705A
S113220070470000F0B50C780F23234064B2CA78FD
S1132210042A70D89200894DAA5897460268083358
S11322205B0100219954002282E05C01026894461B
S1132230644480225200A55CE43A6D0778D1E4320C
S1132240A65C7025E43A2E4272D15F3DE432A55477
S11322501A00083252010468A4182F356571006809
S11322608218802010718A78002A1FD05801744A7D
S113227012185468802000060443546054692043B3
S1132280506107254C785A016D4B9B1858682C40B7
S113229024076C4E30402043586049785A692940DD
S11322A0090732400A435A61002241E05801644A56
S11322B012185068400040085060506940004008BF
S11322C05061DEE7002C35DB5D010268944665440D
S11322D080225200AE5CE43A760729D1802676004B
S11322E0AA5D02273A43AA55026818000830400143
S11322F0121840205071E20F4F785D00AD182D0187
S11323004F4E7519686807243C4024074D4E3040F1
S1132310204368608978002900D088E05B009B181E
S11323201B01474AD3185A68520052085A600022C7
S11323301000F0BD5D01026894466544802252009D
S1132340AF5C7026E43A3742F2D19036AA5D20277A
S11323503A43AA5502681800083040011218802038
S11323601071C8E7002C17DB5D01026894466544D0
S113237080225200AE5CE43A7607D9D180267600FA
S1132380AA5D03273A43AA550268180008304001A1
S1132390121840205071AEE75D010268944665440E
S11323A080225200AF5C7026E43A3742C0D19036A6
S11323B0AA5D30273A43AA55026818000830400144
S11323C012188020107196E7002C17DB5D0102685B
S11323D09446654480225200AE5CE43A7607A7D165
S11323E080267600AA5D04273A43AA55026818009D
S11323F0083040011218402050717CE75D010268EA
S11324009446654480225200AF5C7026E43A374219
S113241000D08DE79036AA5D40273A43AA5502685A
S113242018000830400112188020107163E76968B1
S113243080231B060B436B60002279E7704A00007F
S1132440D4070020FFFFFF8F0F230B4049B2002960
S11324500ADB08335B010268D2184021517102681B
S1132460D3180122DA71704708335B010268D2186D
S1132470802111710268D3180222DA71F3E70F2365
S11324800B4049B2002907DB026808335B01D3180B
S11324909879C006C00F7047026808335B01D318EF
S11324A098798006C00FF6E70F230B4049B2002944
S11324B006DB026808335B01D31810225A71704797
S11324C0026808335B01D31820225A71F7E730B54C
S11324D00F230B4049B200291DDB59010268521831
S11324E083246400145DE40614D51025822464005A
S11324F01555026852180821FF31515C890609D527
S1132500E43C0821FF315454026808335B01D318BA
S113251001221A7130BD59010268521883246400E3
S1132520145DA406F6D5202582246400155502689E
S113253052180821FF31515C4906EBD5C43C0821EF
S1132540FF315454026808335B01D31802221A7114
S1132550E0E7000030B50C00083464010568645DF0
S11325606406640F1C25002C01D1280030BD4C01E9
S11325700B4D2D192C002A616A690A4D2A406261AB
S113258062699B049B0C920B92031343636103687F
S113259008314901591880234B710025E5E7C046ED
S11325A0D4070020FF3F00F030B50C00083464016C
S11325B00568645D64071C25002C01D1280030BD2A
S11325C00B4C4D012A51621954689B041B09094D97
S11325D02C402343536053689B0B9B035360036855
S11325E008314901591840230B710025E6E7C0461C
S11325F0D4070020FF3F00F0094B19605A680949CD
S11326001140802292020A435A605A68920B920344
S11326105A600268402182235B00D1540020704735
S1132620D4070020FF3F00F00268137802210B4317
S1132630137002689378022BFCD07047F0B5DE4625
S113264057464E464546E0B583B0C44B1F683D68C7
S11326502B78DB0914D12E8CB6B2002E00D02DE2DB
S1132660AE8BB6B2AB235B00FB5AAA225200BD5A12
S11326701D4035400024BA4FB84B9946984608E2AD
S11326802B8C9BB2002B00D13DE1288C80B2B54B42
S1132690984704001F2800D935E1030008335B0183
S11326A0ED18ED79EDB2AB0741D0AF4A0123834079
S11326B0116899431160030008335B013A6894463A
S11326C063440322DA713B18AE331B78DB072ED543
S11326D0A64B18703A68030008335B019B5C9B07A8
S11326E09B0F012B00D194E04201A14B9B185A6827
S11326F01201920C90B29D494A805A689204920C3D
S11327008A805A689B490A405A60002807D16201AE
S1132710974B9B185B689B049B0C944A53808F4B8C
S11327201868A31C1B01C3185B68904998476B0782
S11327301FD58A4B18680268230008335B019B5C31
S11327409B065B0F022B75D0230008335B019B5C57
S11327509B065B0F032B00D19EE06201844B9B1808
S113276000229A7203682200083252019B18042244
S1132770DA712B0715D57C4A0123A34011689943CC
S11327801160764B1868230008335B010268944695
S113279063440822DA710319AE331B789B0700D512
S11327A094E0EB0615D5704A0123A34011689943C0
S11327B011606A4B1868230008335B010268944671
S11327C063441022DA710319AE331B785B0700D51A
S11327D08AE0AB0600D42FE1634A0123A3401168C9
S11327E0994311605D4B1868230008335B0102684C
S11327F0944663442022DA710319AE331B781B0715
S113280000D419E159490C7024010419236B984729
S113281012E14201564B9B185A689204920C534998
S11328204A805A681201920C8A805A68920B920369
S11328305A6074E7230008335B019B5C9B079B0F82
S1132840012B81D161014A4B5B1808339B78DB076C
S113285000D479E7444A0123A340116899431160E5
S11328606201434B9B1800229A72230008335B01D8
S11328700268944663440422DA710319AE331B7868
S11328809B0700D475E739490C7010234B70230162
S1132890C3189B6A98476CE7230008335B019B5C71
S11328A09B079B0F012B00D057E76201304B9B180D
S11328B000229A72230008335B010268D2180421B3
S11328C0D1710268D31810225A7152E727490C704B
S11328D06201274B9B18DB891F2213404B70230195
S11328E0C3189B6A98475CE720490C706201204B2F
S11328F09B185B681B019B0C4B802301C318DB6A8C
S11329000021984765E7AC8BA4B2630738D504234C
S1132910AB83154B1D6801230120102602E001330F
S1132920082B29D002009A401542F8D039681A00C1
S113293008325201525C9206520F032AEFD11A0058
S113294008325201525C9207920F012AE7D11A0011
S11329500832520189180E71E1E7C046D004002004
S1132960844A000069490000E0040020E4040020D7
S1132970D4070020FF3F00F09D33FB5CDB0762D4EB
S113298023070BD50022AF4B1A60AF4B18680823FE
S1132990026893839D33C35C9B0758D4630608D5B0
S11329A0A94B18684023026893836533C35CDB0634
S11329B050D4A30608D5A44B186820230268938337
S11329C08533C35C1B0748D4E30608D59E4B1868BF
S11329D01023026893839533C35C5B0740D42306BA
S11329E00BD50022974B1A60974B18688023026816
S11329F093832533C35C9B0635D4E3050CD50022B1
S1132A00904B1A60904B186880235B000268938394
S1132A105B3BC35C5B0629D4A3050DD50022894B1F
S1132A201A60894B186880239B00026893835C3B7F
S1132A30FF3BC35C7F2B1CD803B03CBC904699463B
S1132A40A246AB46F0BD7B683800984798E7836898
S1132A509847A3E743699847ABE703699847B3E707
S1132A60C3689847BBE783699847C6E7C369984733
S1132A70D2E7036A9847DFE723002E339B004246E0
S1132A8012689B5871494246106898470134072CD4
S1132A90D2D06300DB5B334203D04A46126812682B
S1132AA093832B42F2D0062CE6D1694B1B891B0978
S1132AB0802252001340654A1360DDE73C0059341C
S1132AC0FF340023012294465F329146503A9246E5
S1132AD00D3A9346B8462F00C3E02A003D0047460E
S1132AE090465B01ED180823FF33EB5C5B0615D5BC
S1132AF040220823FF33EA54883BFF3B42461343FA
S1132B00544A937160230B4296D0019B1B01FB181E
S1132B10E0331B684F49380098478DE70823FF339B
S1132B20EB5C9B06EED520220823FF33EA54494B85
S1132B3042469A71E6E73D004746019A130008337E
S1132B405B01ED181023EB71BB186133FF331B7865
S1132B50DB0600D470E7100052013D4B9B185B6804
S1132B609B049B0C3B490B800301FB18DC331B6863
S1132B704046984760E72A003D00474690465B017F
S1132B80ED180823FF33EB5C9B071ED502220823B4
S1132B90FF33EA542F48883BFF3B4246134383717B
S1132BA0019B5A012A4B9B1810335B689B049B0CB6
S1132BB043808B0700D13FE7019B0D331B01FB18BA
S1132BC05B6824493800984736E70823FF33EB5CF9
S1132BD0DB07EED501220823FF33EA541D484346A0
S1132BE08371019B5B011A4AD21853689B049B0CA6
S1132BF0038053681B019B0C8380DAE70822FF32B1
S1132C009A5C520779D504200822FF32985401981F
S1132C1042010F4B9B189B7A9B0705D50C4B9B18C5
S1132C209A7A022082439A720A4B42469A71019B15
S1132C3008335B013A6894466344DB79DB075CD56F
S1132C40FAE6C046E0040020D0040020D4040020AA
S1132C50D4070020D804002001330134082B00D10C
S1132C60EAE6DDB2019332001A4161461142F3D023
S1132C701A0008325201BA18D279D2B2217A11401C
S1132C80207801404846104200D026E750461042C2
S1132C9000D050E75846104200D06CE70C20104298
S1132CA0DAD02A003D00474690465B01EB18082223
S1132CB0FF329A5C1207A1D504380822FF329854D7
S1132CC001984201134B9B189B7E9B0705D5114B22
S1132CD09B189A7E022082439A7680235B42424666
S1132CE013430D4A9371019B08335B013A68944680
S1132CF06344DB799B0700D59EE60C230B4200D18D
S1132D009AE6019B1B01FB18D8331B680249380063
S1132D10984791E6D4070020D804002000220270CE
S1132D20012343708270C37070470000F0B5CE4633
S1132D30474680B583B004000D00160000236E4A98
S1132D4013606E4A106021606D49CA6920200243F5
S1132D50CA6101AF7B700122BA70FB7006339946D9
S1132D603B7039000838674B984698474B463B7090
S1132D7039001920C047B3786A46137069460620A3
S1132D80614B98470620614B98472B7801221343E7
S1132D902B70AB78DB07FCD45D4AD37803218B43DB
S1132DA002210B43D370D3780C218B4308210B43AE
S1132DB0D370584B1B689B03DB0E1F2B00D18FE095
S1132DC02A8D9B0154490A4013432B85514B1B68A0
S1132DD05B02DB0E1F2B00D184E02A8D1F218A4366
S1132DE013432B854B4B1B689B015B0F072B00D1B7
S1132DF07AE02A8D1B0349490A4013432B85327814
S1132E002978D2017F230B4013432B7071782B78E0
S1132E1001220A40920004218B4313432B70404B40
S1132E206B62F378012B61D0002B06D122681389E1
S1132E300C218B4304210B43138180225200002177
S1132E403748384B9847231D21002431002204C3FE
S1132E508B42FCD12100A43100221A605A609A608E
S1132E60DA6010338B42F8D10023A422A354013238
S1132E70A3542300A6332100AE3100221A701A7223
S1132E8001339942FAD12300B8332100D43100220E
S1132E9004C38B42FCD121005531FF3100221A605A
S1132EA05A609A60DA6010338B42F8D10023AA2268
S1132EB05200A3520232A35223005933FF33613428
S1132EC0FF3400221A701A720133A342FAD180220D
S1132ED0154B1A60002003B00CBC90469946F0BD17
S1132EE01A3B6DE7023B78E7043B82E722681389CB
S1132EF008318B431381A0E7E0040020D0040020B4
S1132F0000040040254400002D430000A1420000BD
S1132F1000500041246080003FF8FFFFFF8FFFFF57
S1132F20D4070020574A000000E100E070B50022F9
S1132F30104B1A70002310491F25104E0D4C0AE047
S1132F400D4908E023780133DBB223700F2B10D82E
S1132F5000211F2BF4D9280018400122824008695F
S1132F601042EFD00A619B009B59002BEAD098478E
S1132F70E8E770BDD4080020001800409405002044
S1132F8010B50F4B1A681468518A138A1940207AB5
S1132F90E379034058B2002806DBDB0703D5CB07EF
S1132FA00AD40123237210BD8B0702D48023237219
S1132FB0F9E7D3689847F9E793689847F1E7C0467B
S1132FC0D8080020F0B5C64600B580000E4BC7589F
S1132FD03B68DE6ABB6B7A6B13401E4000240B4BCC
S1132FE0984602E00434302C0AD04346E558354272
S1132FF0F8D03B195B68380098473B68DD62F1E71D
S113300004BC9046F0BDC046E4080020984A000085
S113301010B50020014B984710BDC046C52F0000D5
S113302010B50120014B984710BDC046C52F0000C4
S113303010B50220014B984710BDC046C52F0000B3
S1133040F0B5DE4657464E464546E0B591B005001C
S11330500C00160029600800BA4B98470200236848
S11330600520DB0706D511B03CBC90469946A24624
S1133070AB46F0BD236817309B07F4D4B249086A05
S1133080971C0123BB4003430B620FA92D27F35D5B
S11330900B701432D3B202931800AC4B98470298C9
S11330A0AB4B9847F05D0021AA4B9847F37A6B71BC
S11330B02423F35CAB712523F35CEB71F37E2B7259
S11330C0337F6B722B68984618009E4B98471430D8
S11330D000220E2306A98C4663441A80328A029287
S11330E08023DB019A4200D19AE00FD9C023DB018F
S11330F0029A9A4200D18EE080231B029A4200D0A9
S11331001BE1032306930023079308E080239B011C
S11331109A4200D011E1102306930F3B07933368C2
S11331200593F3689B4673690393337E04932623C4
S1133130F35C9A4673689946002B00D19CE0802387
S11331405B05994500D180E0737E002B02D0B37EED
S1133150424693730E2306AA944663441B88424650
S11331609381059B5A461343039A13434A461343D8
S1133170029F1F43049B1B021F4353465B071F43CD
S11331802723F35C002B01D104331F43737E9B027E
S1133190327F52021343727F120213432422B25C21
S11331A0520413432522B25C12041343B17AF27A17
S11331B0114319433389FF2B00D181E0802252044B
S11331C0174319432C23F35C002B03D1624B9B78E8
S11331D09B0701D580231F432A68D369002BFCD1A8
S11331E0434659602A68D369002BFCD143461F60CB
S11331F00EAB80221A7000225A70DA709A70336B08
S11332000A93736B0B93B36B0C93F36B02930D9351
S113321000270AAE63E008230693073B07937EE783
S113322033680593F3689B4673690393337E049371
S11332302623F35C9A4673689946002B18D08023A2
S11332405B05994501D0002025E02723F35C002B82
S113325000D079E7336A1F00C0B2404B98470100A1
S11332600E2206AB9C46624438003D4B984712E060
S113327008230693002307932723F35C002B0ED027
S1133280069B0093079B0E2206A98C466244B16AF2
S1133290306A344FB847002800D0E4E654E7336A74
S11332A01F00C0B22D4B98470100069B0093079B5B
S11332B00E2206A88446624438002A4FB847EAE73B
S11332C0F37E002B00D17DE78023DB041F4379E7E5
S11332D02000254B984707E00137042F0DD0F9B2A1
S11332E0BB0098590028F3D0431CF5D00EA90870F0
S11332F0000CC0B21D4B9847EEE70023EB602B6136
S11333006B61AB61EB612B62AB626B620022EB859C
S1133310AB853033EA540133EA540133EA540133C0
S1133320EA542868074B984704001149114B984701
S1133330A400114BE550002095E6102306930023CA
S11333400793ECE631390000000400402D430000EF
S1133350A14200006D3700000020004149430000F5
S1133360AF360000D9360000B9370000254400000C
S1133370613400006D390000F0080020F8B5060043
S11333800C00150007680A4B9847F38D9BB2002B7D
S113339003D0084B98470520F8BDF585054B9847A1
S11333A0B46205223323F254323BBB750020F3E7A9
S11333B0193D0000593D0000F8B504000D00160049
S11333C007680F4B9847A38D9BB2002B03D00D4B7E
S11333D098470520F8BDA6850A4B984765620522E3
S11333E03223E2542E3BBB75237A002B01D02023D9
S11333F0BB75637A0020002BECD00823BB75E9E78A
S1133400193D0000593D0000931C9B00C3185960EE
S11334103021012393401A00435C13434354704703
S113342010B51723002A01D1180010BDC479053343
S1133430002CF9D0014B98470300F5E77D330000D9
S113344010B51723002A01D1180010BD8479053363
S1133450002CF9D0014B98470300F5E7B93300007D
S1133460F8B58000624BC5582C68E369002BFCD189
S1133470237EA67D1E403023EB5C3122AF5C1F40CF
S1133480F30722D5EB8D9BB2002B1CD0AA6A1378CC
S1133490DBB2511CA962697901290ED09BB2DB050C
S11334A0DB0D2385EB8D013B9BB2EB85002B0CD10F
S11334B0013323750133A37507E0517809020B43E7
S11334C00232AA62EBE701232375B30706D5022370
S11334D0237500223133EA54FB071AD4730765D5E8
S11334E0AB8D9BB2002B5FD0638BDBB21A0714D475
S11334F03F221340002B34D09A0711D51A223223CD
S1133500EA54303B63837B0750D528006B699847A6
S11335104CE02800EB689847E0E737221340E9E7DE
S11335205A0705D51E223223EA542E3B6383EAE769
S1133530DA0705D513223223EA54313B6383E2E7E9
S1133540DA0605D542223223EA54223B6383DAE7C2
S113355020221A42D7D021323223EA54123B638309
S1133560D1E7238DDB05DB0DDAB2696A0A706A6A7A
S1133570511C69626979012910D0AB8D013B9BB262
S1133580AB85002B12D10433237500222E33EA5469
S1133590BB070BD528002B69984707E01B0A53701B
S11335A06B6A01336B62E8E704232375F30604D5E1
S11335B0102323752376FB060ED4B30604D52023EB
S11335C0237523763B070BD4330704D508232375CF
S11335D02376BB0608D4F8BD2800EB699847ECE7CE
S11335E02800AB699847EFE72B6A28009847F2E771
S11335F0F0080020F0B5DE4657464E464546E0B595
S113360087B08046049116001F0000220023002189
S11336108B463F2401202100009601975C460394C9
S11336204446059413E02024641A0500E540A846A6
S113363014E0009C019D121BAB415C464D462C439B
S1133640A346039C45462C430394013925D32024E7
S113365064420C19E7D40500A540A84604008C4038
S1133660A14692185B4114001D00059E4F463E4042
S1133670B446049E47463E40B246664657463E43DD
S113368003D00600264332002B00009C019D9D427E
S1133690DBD8CED19442D8D8CBE7039B5846190047
S11336A007B03CBC90469946A246AB46F0BD10B567
S11336B0490840230024814202D2180010BD1C0096
S11336C0091A631C9BB28842F9D94023FF2CF4D811
S11336D014800023F1E70000F0B583B00F0016005A
S11336E008AA117804004C434022BC4202D91000BD
S11336F003B0F0BD002B14D1020008000021194CC6
S1133700A04701003A0000230020174CA0470022E4
S11337100123121A8B41120C1B041A43328000221B
S1133720E5E70022012BF9D10A00002300210D4C0A
S1133730A04702000B0000920193380000210A4CBC
S1133740A047050080239B0140229842CFD8790FDF
S1133750F800009A019BA047EA00821AD2B25203F1
S11337602A43DBE7A9490000F535000010B582B013
S113377004000E4B1B78002B07D0002905D10B4BFE
S11337805B78834210D01D200CE001A90C7013203B
S1133790074B98471320074B9847044B5C70012252
S11337A01A70002002B010BD0020FBE7EC040020DA
S11337B02D430000A1420000404B984231D00AD969
S11337C03F4B98424DD03F4B98425AD03E4B984283
S11337D037D0002070473D4B98420CD03C4B984268
S11337E0F7D1012917D000295DD0022915D003296A
S11337F015D00020EEE7012907D0002951D0022975
S113380005D0032905D00020E4E73248E2E7324836
S1133810E0E73248DEE73248DCE73248DAE73248AC
S1133820D8E7012907D000293FD0022905D0032970
S113383005D00020CEE72D48CCE72D48CAE72D4817
S1133840C8E7012907D0002931D0022905D003296E
S113385005D00020BEE72848BCE72848BAE7284836
S1133860B8E7012907D0002923D0022905D003296C
S113387005D00020AEE72348ACE72348AAE7234855
S1133880A8E7012907D0002915D0022905D003296A
S113389005D000209EE71E489CE71E489AE71E4874
S11338A098E71E4896E7032094E71D4892E71D48D1
S11338B090E71D488EE71D488CE7C0460010004283
S11338C000180042001C004200140042000800429C
S11338D0000C00420300050003000600030007007B
S11338E00300010003001E0003001F000300090081
S11338F003000A0003000B00030011000300120080
S11339000300130003000D0003000E0003000F006A
S1133910030017000300180003001900030004004B
S1133920030008000300100003000C00030016004D
S113393030B587B00B4B6A4632CB32C232CB32C27F
S1133940009B83420BD001239A006946525882425D
S113395006D00133062BF7D1002007B030BD002379
S1133960D8B2FAE7C84A000070470000F0B50A4B25
S11339701B78002B0CD1094F094E0A4D0024DE514F
S11339805A1914600433182BF9D10122024B1A700E
S11339908000024BC150F0BDEE040020F004002072
S11339A069390000F008002000B583B009236A4695
S11339B0137001335370013393700133D3700133A7
S11339C0137101335371034B98476B46185603B078
S11339D000BDC0463139000010B5024B1B68002001
S11339E0984710BDF004002010B5024B5B6801201D
S11339F0984710BDF004002010B5024B9B680220CC
S1133A00984710BDF004002010B5024BDB6803207A
S1133A10984710BDF004002010B5024B1B69042028
S1133A20984710BDF004002010B5024B5B690520D7
S1133A30984710BDF004002010B50B4B98470B4B72
S1133A40984700280BD00A4B18780A4B98470A4B22
S1133A509847012206490948094B984710BD094B6C
S1133A609847094B9847F2E7391F0000DD09000029
S1133A7008050020B90A00003B1F00002C050020A7
S1133A8041340000C10500003D1F000010B50C4B7F
S1133A909847002808D10B4931228B5C01208343CD
S1133AA08B54094B984710BD084B9847084B9847CF
S1133AB00849087001220348074B9847F3E7C046BA
S1133AC03D0800002C050020371F0000351F0000B2
S1133AD039090000090500202134000010B5084B05
S1133AE09847084C3122A35C01210B43A354064B95
S1133AF098470649087001222000054B984710BDDD
S1133B00351F00002C05002039090000090500209C
S1133B102134000070B5574B8022D2051A60002270
S1133B205A60FF20188100209A72DA729624A40148
S1133B301C62012424255C5501355C5525341A5535
S1133B4001341A559A6288246403DC602C241A55C3
S1133B501A635A639A63DA635A611A82DA761876B8
S1133B601877587613229A76587703201A32985485
S1133B700B79022B02D113323E4B9A724B79012BF3
S1133B8067D0022B02D100223A4B1A818B79062B83
S1133B9068D0072B6AD0052B60D00A784B781B02BB
S1133BA013438A7812041343CA7812061A43314B1A
S1133BB01A6280225203DA602F4A1A632F4A5A6328
S1133BC0012252429A63DA632D4D2C6820002D4B5A
S1133BD098471F2318401E3B834080222A498B505C
S1133BE02A68D369002BFCD1236802229343236003
S1133BF0234D204A25492800254B98472C6820004E
S1133C00204B98471F2318401E3B83401E4A1360D5
S1133C102A68D369002BFCD1236802221343236052
S1133C20174C00221B4920001B4EB0473125635D11
S1133C30012213436355012218492000B047635DF4
S1133C40022213436355012215492000154B98475E
S1133C5070BD80229201074B1A8197E70522054B1C
S1133C60DA729AE70622034BDA7296E70722014BCF
S1133C70DA7292E708090020020016000200170019
S1133C802C050020A939000000E100E000140042E6
S1133C90413000008D3A000009340000393A000038
S1133CA0080500204134000070B50A4D2C6820003E
S1133CB0094B98471F2318401E3B8340074A136053
S1133CC02A68D369002BFCD12368022213432360A2
S1133CD070BDC0462C050020A939000000E100E0B9
S1133CE070B50A4D2C682000094B98471F231840D3
S1133CF01E3B8340802207498B502A68D369002BDE
S1133D00FCD1236802229343236070BD2C0500205C
S1133D10A939000000E100E00C4B1B68002B06D120
S1133D20EFF31083002B07D00022094B1A70074AC7
S1133D30136801331360704772B6BFF35F8F0022BC
S1133D40044B1A700132024B1A70F0E70C05002084
S1133D5010050020F0000020084B1A68013A1A6090
S1133D601B68002B09D1064B1B78002B05D00122C0
S1133D70044B1A70BFF35F8F62B670470C050020C6
S1133D8010050020F0000020F0B583B001AC01253F
S1133D9065700027A770257021003E20064EB047AD
S1133DA08022D205054B9A612770657021000F208F
S1133DB0B04703B0F0BDC046C13D0000804400419F
S1133DC000B583B001AB80221A700A785A704A7821
S1133DD09A708A78DA701900014B984703B000BDD5
S1133DE02544000010B5082803D880001C4B1B583C
S1133DF09F46002032E01B4B18692FE01A4B1B6AC8
S1133E009B059B0F1948D84028E0164B586925E0BC
S1133E10144B1B6800209B0720D513491022CB6844
S1133E201A42FCD00F4B1A6824231340042B01D0F0
S1133E300F4813E000200F4B98470A4B9B681B0464
S1133E401B0C58430AE05023074AD35C00205B074D
S1133E5004D5044BD86801E08020000210BDC046A0
S1133E60E04A0000140500200008004000127A0017
S1133E70006CDC024943000070B50C490B6A0478FD
S1133E80857840780122104080014026B3430343E3
S1133E902A40D2018020834313430322224012028A
S1133EA00348034013430B6270BDC0460008004042
S1133EB0FFFCFFFF10B5037A9B061B0C4289920599
S1133EC0920D134318494B608379C2791343428896
S1133ED08488224313434278D20113430B6003784E
S1133EE0042B11D0202B0ED1037B9B06028A134393
S1133EF0C28912040D490A4013430B4A93601168A6
S1133F000B4B0B43136010BD037B9B06028A1343C8
S1133F10C289120405490A401343034A9360136893
S1133F2004210B431360EEE7140500200000FF0397
S1133F3024040000082803D88000254B1B589F4602
S1133F40172044E0234A136A02210B431362002022
S1133F503DE0204A936902210B439361002036E03F
S1133F601C4A138A02210B43138200202FE0194AB2
S1133F70938A02210B439382002028E016490B68A0
S1133F80022213430B60134B9A8419000E32CB6840
S1133F901A42FCD0104A91680E4BD96252689A6258
S1133FA000229A8419001032CB681A42FCD00A4BC2
S1133FB01B689BB2074A9384002008E00549442209
S1133FC08B5C022003438B54002000E000207047E8
S1133FD0044B0000000800401405002070B58AB0AE
S1133FE0C222D200364B9A60364A53681E218B4354
S1133FF01A390B435360012201AB1A700024324D6D
S1134000E0B201A9A8470134252CF9D105AB00225F
S1134010002159809A71DA71203119705A702B4B32
S11340201B689B0E3F2B49D005A80372072303731B
S11340300333C381264B4381FF3B8380254B03829B
S1134040254B984704A80024447001268670047008
S1134050224B98470620224DA847224B984701A996
S11340604E604C7006230B700C724C7203201E4B76
S1134070984703201D4B98470720A8471049102252
S1134080CB681A42FCD00E4A938C80210B43938454
S1134090174A0023137253729372D37201A9012237
S11340A04A604B704B7207330B700A7200200E4B40
S11340B0984700200D4B98470AB070BD203BB3E7EA
S11340C000080040004000412D43000024608000AF
S11340D0FF01000080BBFFFFB53E0000793E0000F9
S11340E0353F0000F540000019410000D1410000B7
S11340F000040040064A936908210B43936101229E
S1134100044B1A7019000B781342FCD17047C04657
S113411000040040000C004070B5060004000D7857
S11341202D0205434B78002B02D08023DB021D4374
S11341304B7A002B02D080231B031D4348680128BF
S113414010D9431E184234D1022830D90223002248
S113415001325B009842FBD81202324314008023E0
S11341605B031D430B7A002B02D080239B031D436A
S1134170134A53785BB2002BFBDB124B9847124B6C
S11341801E700F4A53785BB2002BFBDB0C4B9C6018
S11341901A0053785BB2002BFBDB094A5368802179
S11341A049020B401D435560084B984770BD0022DF
S11341B0D2E70402344380239B021D43D2E7C04666
S11341C0000C0040193D0000080C0040593D00005F
S11341D010B504000B4A53785BB2002BFBDB0A4B8F
S11341E098470A4B1C70074A53785BB2002BFBDBE1
S11341F0044A516880235B020B435360044B984785
S113420010BDC046000C0040193D0000040C0040E5
S1134210593D000070B504001A4A53785BB2002B74
S1134220FBDB194B9847194B1C70164A53785BB249
S1134230002BFBDB134E7068C004C00E144B984770
S11342400500124B1C707668F602F60F114B1C70B9
S11342500C4A53785BB2002BFBDB0A4B9C682402AC
S1134260240C0D4B9847002E07D1012C07D92100AF
S113427028000A4B9847050001E00134E540280076
S113428070BDC046000C0040193D0000040C004005
S1134290E53D0000080C0040593D00007D4600004B
S11342A010B50400064B9847064B1C70064A538809
S11342B08021C9010B435380044B984710BDC0466D
S11342C0193D0000020C0040000C0040593D000064
S11342D010B504000F4B98470F4B1C700F4A5388BE
S11342E01B05180F53880E490B40538053880D4902
S11342F00B40538011008022D2014B881342FCD121
S113430006494A8803020648024013434B80064B81
S1134310984710BD193D0000020C0040000C0040FD
S1134320FFF0FFFFFFBFFFFF593D000010B50C7801
S113433024020443024B9847A4B2024B5C8010BD94
S1134340D1420000000C004010B50400064B984711
S1134350064B1C70064B5C882405240F054B9847BC
S11343602000054B984710BD193D0000020C004089
S1134370000C0040593D00001542000030B5D378D0
S1134380002B35D11378802B29D01B06802464029E
S1134390234354780225AC4306D19478002C20D1D1
S11343A08024A402234341605478013C012C1CD98D
S11343B00D042D0CA024E4052C431C4384620D0C35
S11343C0D02424062C431C438462D478002C22D1AC
S11343D05B031CD59378012B1ED0416117E00023A9
S11343E0D7E7C024E4022343DDE70D4C2340DFE795
S11343F041600C04240CA023DB05234383620C0CD2
S1134400D0231B0623438362D378002B03D1537834
S1134410013B012B02D930BD8161F8E78160FAE7E5
S1134420FFFFFBFF10B50A00C1090023002904D1D6
S11344304309DB0105498C4663441F2420400121C4
S113444081401800024B984710BDC046004400410B
S11344507D4300007047000010B5054B9847054B9D
S11344609847054B9847054B9847054B984710BD0F
S1134470DD3F0000893D0000554400006D1100003F
S113448055440000FEE70000F8B52A4A2A4B9A4238
S113449011D01A00294B9A420DD2294A03339B1A90
S11344A09B0801339B000022234822498C588450E6
S11344B004329A42FAD1234A234B9A420AD2D34372
S11344C021495B1803218B4304339B18002102C24A
S11344D09342FCD11D4AFF211D4B8B439360FD3950
S11344E090235B001B4AD1501B4AD3780325AB436E
S11344F002242343D370D3780C27BB4308263343C9
S1134500D370164B987B302290432022104398732B
S1134510997BB943314399739A7BAA4322439A7393
S11345200F4A536880210B4353600E4B98470E4B40
S11345309847FEE7484B000000000020F4000020EC
S113454004000020F40000204809002000ED00E0F1
S1134550000000000070004100500041004800418C
S113456000400041FD4900006D450000F8B5DE46FD
S113457057464E464546E0B5364D01242C70BFF3F0
S11345805F8F62B6344B00221A705A709A70DA70D8
S11345901C71324B98472C70BFF35F8F62B6304B5F
S11345A09847304B9847304B98472A4F0024261C95
S11345B0294DB84601239C46BB462C4B9A460F23F3
S11345C099460EE0190001324B1CDBB2107800282A
S11345D0F8D0002B0FD1434662461A70BFF35F8FA9
S11345E062B672B6BFF35F8F3E702B78002BF2D1A8
S11345F02100194AE7E772B6BFF35F8F5B461C7070
S113460053469B691B0A4A461340022B05D8184A95
S11346105068C0239B000343536002290BD903292C
S113462011D00C4B62461A70BFF35F8F62B6BFF3B2
S11346304F8F30BFD5E70F4A1369042083431361BA
S11346400D4B5970EDE70B4A136904210B431361B9
S1134650E7E7C046F0000020DC08002059440000D1
S1134660151F0000251F0000650C000000200041FC
S11346700040004100ED00E0000400400022430837
S11346808B4274D303098B425FD3030A8B4244D316
S1134690030B8B4228D3030C8B420DD3FF22090258
S11346A012BA030C8B4202D31212090265D0030B17
S11346B08B4219D300E0090AC30B8B4201D3CB030D
S11346C0C01A5241830B8B4201D38B03C01A52414F
S11346D0430B8B4201D34B03C01A5241030B8B4251
S11346E001D30B03C01A5241C30A8B4201D3CB023C
S11346F0C01A5241830A8B4201D38B02C01A524121
S1134700430A8B4201D34B02C01A5241030A8B4223
S113471001D30B02C01A5241CDD2C3098B4201D33B
S1134720CB01C01A524183098B4201D38B01C01AB9
S1134730524143098B4201D34B01C01A5241030930
S11347408B4201D30B01C01A5241C3088B4201D3DF
S1134750CB00C01A524183088B4201D38B00C01A8C
S1134760524143088B4201D34B00C01A5241411AB3
S113477000D20146524110467047FFE701B50020C0
S113478000F0F0F802BDC0460029F7D076E7704784
S113479003460B437FD4002243088B4274D303099E
S11347A08B425FD3030A8B4244D3030B8B4228D33F
S11347B0030C8B420DD3FF22090212BA030C8B4265
S11347C002D31212090265D0030B8B4219D300E005
S11347D0090AC30B8B4201D3CB03C01A5241830B8A
S11347E08B4201D38B03C01A5241430B8B4201D33A
S11347F04B03C01A5241030B8B4201D30B03C01A63
S11348005241C30A8B4201D3CB02C01A5241830ADC
S11348108B4201D38B02C01A5241430A8B4201D30B
S11348204B02C01A5241030A8B4201D30B02C01A35
S11348305241CDD2C3098B4201D3CB01C01A52419C
S113484083098B4201D38B01C01A524143098B4225
S113485001D34B01C01A524103098B4201D30B010E
S1134860C01A5241C3088B4201D3CB00C01A524133
S113487083088B4201D38B00C01A524143088B42F8
S113488001D34B00C01A5241411A00D20146524191
S1134890104670475DE0CA0F00D04942031000D3B0
S11348A04042534000229C4603098B422DD3030A05
S11348B08B4212D3FC22890112BA030A8B420CD315
S11348C0890192118B4208D3890192118B4204D33E
S11348D089013AD0921100E08909C3098B4201D3BE
S11348E0CB01C01A524183098B4201D38B01C01AF8
S11348F0524143098B4201D34B01C01A524103096F
S11349008B4201D30B01C01A5241C3088B4201D31D
S1134910CB00C01A524183088B4201D38B00C01ACA
S11349205241D9D243088B4201D34B00C01A5241A1
S1134930411A00D20146634652415B10104601D32E
S11349404042002B00D54942704763465B1000D3B8
S1134950404201B5002000F005F802BD0029F8D05E
S113496016E770477047C046414208401C210123A6
S11349701B04984201D3000C10391B0A984201D33E
S1134980000A08391B09984201D30009043902A21C
S1134990105C401A7047C0461B1C1D1D1E1E1E1EA7
S11349A01F1F1F1F1F1F1F1FF0B5CE4647461504AC
S11349B02D0C2E0080B50704140C3F0C9946030CF3
S11349C07E435D43674363437F19340CE4199C467B
S11349D0A54203D980235B029846C4444B46514305
S11349E043433604360C250C24046544A419591891
S11349F0491920000CBC90469946F0BD70B50026BC
S1134A000C4D0D4C641BA410A64209D1002600F0E5
S1134A108BF80A4D0A4C641BA410A64205D170BD44
S1134A20B300EB5898470136EEE7B300EB589847CC
S1134A300136F2E7344B0000344B0000344B0000E5
S1134A40384B0000002310B59A4200D110BDCC5C55
S1134A50C4540133F8E703008218934200D170472D
S1134A6019700133F9E7000031322E2E2E4546002D
S1134A701C2200002A220000C4220000642300003B
S1134A80C823000004000800700080000100000139
S1134A9000020000030C106001000000020000008E
S1134AA004000000080000000010000000200000C6
S1134AB0004000000080000000000100000002002F
S1134AC0000004000000080000080042000C00423E
S1134AD0001000420014004200180042001C004272
S1134AE0F63D0000F23D0000F23D0000583E00009B
S1134AF0583E00000A3E0000FC3D0000103E00004D
S1134B00463E0000603F0000403F0000403F000080
S1134B10CC3F0000523F00006E3F0000443F0000C5
S1134B207C3F0000BC3F0000F8B5C046F8BC08BCA0
S1134B309E467047DD000000F8B5C046F8BC08BCCE
S10B4B409E467047B500000019
S1134B4855010000150100001905000029010000A5
S1134B580000000015070000F10400002501000012
S1134B6829010000B9030000000300000000000050
S1134B780000000000000000000000000000000029
S1134B880000000000000000000000000403090405
S1134B984D616E7566616374757265206E616D65CD
S1134BA80000000050726F64756374206E616D6557
S1134BB800000000D4000020800000200000000055
S1134BC888000020E800002009024B00020100C010
S1134BD832080B000202020100090400000102026B
S1134BE80100052400100104240202052406000122
S1134BF8052401030107058303400010090401008B
S1134C08020A0000000705810240000007050202AD
S1134C18400000001201000200000040EB030424DD
S1134C28000101020301000000000020140000201C
S1074C380100000073
S90344892F
